{"abi":[{"type":"constructor","inputs":[{"name":"_githubProver","type":"address","internalType":"address"},{"name":"_vault","type":"address","internalType":"address"},{"name":"_owner","type":"address","internalType":"address"}],"stateMutability":"nonpayable"},{"type":"function","name":"_setTestVerifier","inputs":[{"name":"newVerifier","type":"address","internalType":"contract IProofVerifier"}],"outputs":[],"stateMutability":"nonpayable"},{"type":"function","name":"bounties","inputs":[{"name":"","type":"uint256","internalType":"uint256"}],"outputs":[{"name":"id","type":"uint256","internalType":"uint256"},{"name":"creator","type":"address","internalType":"address"},{"name":"action","type":"uint8","internalType":"enum GhostBounties.GitHubAction"},{"name":"repoOwner","type":"string","internalType":"string"},{"name":"repoName","type":"string","internalType":"string"},{"name":"prOrIssueNumber","type":"uint256","internalType":"uint256"},{"name":"reward","type":"uint256","internalType":"uint256"},{"name":"status","type":"uint8","internalType":"enum GhostBounties.BountyStatus"},{"name":"completedBy","type":"address","internalType":"address"},{"name":"createdAt","type":"uint256","internalType":"uint256"},{"name":"completedAt","type":"uint256","internalType":"uint256"}],"stateMutability":"view"},{"type":"function","name":"cancelBounty","inputs":[{"name":"bountyId","type":"uint256","internalType":"uint256"}],"outputs":[],"stateMutability":"nonpayable"},{"type":"function","name":"claimed","inputs":[{"name":"","type":"uint256","internalType":"uint256"},{"name":"","type":"address","internalType":"address"}],"outputs":[{"name":"","type":"bool","internalType":"bool"}],"stateMutability":"view"},{"type":"function","name":"completeBounty","inputs":[{"name":"bountyId","type":"uint256","internalType":"uint256"},{"name":"proof","type":"tuple","internalType":"struct Proof","components":[{"name":"seal","type":"tuple","internalType":"struct Seal","components":[{"name":"verifierSelector","type":"bytes4","internalType":"bytes4"},{"name":"seal","type":"bytes32[8]","internalType":"bytes32[8]"},{"name":"mode","type":"uint8","internalType":"enum ProofMode"}]},{"name":"callGuestId","type":"bytes32","internalType":"bytes32"},{"name":"length","type":"uint256","internalType":"uint256"},{"name":"callAssumptions","type":"tuple","internalType":"struct CallAssumptions","components":[{"name":"proverContractAddress","type":"address","internalType":"address"},{"name":"functionSelector","type":"bytes4","internalType":"bytes4"},{"name":"settleChainId","type":"uint256","internalType":"uint256"},{"name":"settleBlockNumber","type":"uint256","internalType":"uint256"},{"name":"settleBlockHash","type":"bytes32","internalType":"bytes32"}]}]}],"outputs":[],"stateMutability":"nonpayable"},{"type":"function","name":"completedBounties","inputs":[{"name":"","type":"address","internalType":"address"}],"outputs":[{"name":"","type":"uint256","internalType":"uint256"}],"stateMutability":"view"},{"type":"function","name":"createBounty","inputs":[{"name":"action","type":"uint8","internalType":"enum GhostBounties.GitHubAction"},{"name":"repoOwner","type":"string","internalType":"string"},{"name":"repoName","type":"string","internalType":"string"},{"name":"prOrIssueNumber","type":"uint256","internalType":"uint256"},{"name":"reward","type":"uint256","internalType":"uint256"}],"outputs":[{"name":"bountyId","type":"uint256","internalType":"uint256"}],"stateMutability":"nonpayable"},{"type":"function","name":"getBounty","inputs":[{"name":"bountyId","type":"uint256","internalType":"uint256"}],"outputs":[{"name":"","type":"tuple","internalType":"struct GhostBounties.Bounty","components":[{"name":"id","type":"uint256","internalType":"uint256"},{"name":"creator","type":"address","internalType":"address"},{"name":"action","type":"uint8","internalType":"enum GhostBounties.GitHubAction"},{"name":"repoOwner","type":"string","internalType":"string"},{"name":"repoName","type":"string","internalType":"string"},{"name":"prOrIssueNumber","type":"uint256","internalType":"uint256"},{"name":"reward","type":"uint256","internalType":"uint256"},{"name":"status","type":"uint8","internalType":"enum GhostBounties.BountyStatus"},{"name":"completedBy","type":"address","internalType":"address"},{"name":"createdAt","type":"uint256","internalType":"uint256"},{"name":"completedAt","type":"uint256","internalType":"uint256"}]}],"stateMutability":"view"},{"type":"function","name":"getWorkerStats","inputs":[{"name":"worker","type":"address","internalType":"address"}],"outputs":[{"name":"completed","type":"uint256","internalType":"uint256"},{"name":"earnings","type":"uint256","internalType":"uint256"}],"stateMutability":"view"},{"type":"function","name":"githubProver","inputs":[],"outputs":[{"name":"","type":"address","internalType":"contract GitHubProver"}],"stateMutability":"view"},{"type":"function","name":"nextBountyId","inputs":[],"outputs":[{"name":"","type":"uint256","internalType":"uint256"}],"stateMutability":"view"},{"type":"function","name":"owner","inputs":[],"outputs":[{"name":"","type":"address","internalType":"address"}],"stateMutability":"view"},{"type":"function","name":"renounceOwnership","inputs":[],"outputs":[],"stateMutability":"nonpayable"},{"type":"function","name":"totalEarnings","inputs":[{"name":"","type":"address","internalType":"address"}],"outputs":[{"name":"","type":"uint256","internalType":"uint256"}],"stateMutability":"view"},{"type":"function","name":"transferOwnership","inputs":[{"name":"newOwner","type":"address","internalType":"address"}],"outputs":[],"stateMutability":"nonpayable"},{"type":"function","name":"vault","inputs":[],"outputs":[{"name":"","type":"address","internalType":"contract GhostVault"}],"stateMutability":"view"},{"type":"function","name":"verifier","inputs":[],"outputs":[{"name":"","type":"address","internalType":"contract IProofVerifier"}],"stateMutability":"view"},{"type":"event","name":"BountyCancelled","inputs":[{"name":"bountyId","type":"uint256","indexed":true,"internalType":"uint256"}],"anonymous":false},{"type":"event","name":"BountyCompleted","inputs":[{"name":"bountyId","type":"uint256","indexed":true,"internalType":"uint256"},{"name":"worker","type":"address","indexed":true,"internalType":"address"},{"name":"reward","type":"uint256","indexed":false,"internalType":"uint256"}],"anonymous":false},{"type":"event","name":"BountyCreated","inputs":[{"name":"bountyId","type":"uint256","indexed":true,"internalType":"uint256"},{"name":"creator","type":"address","indexed":true,"internalType":"address"},{"name":"action","type":"uint8","indexed":false,"internalType":"enum GhostBounties.GitHubAction"},{"name":"repoOwner","type":"string","indexed":false,"internalType":"string"},{"name":"repoName","type":"string","indexed":false,"internalType":"string"},{"name":"reward","type":"uint256","indexed":false,"internalType":"uint256"}],"anonymous":false},{"type":"event","name":"OwnershipTransferred","inputs":[{"name":"previousOwner","type":"address","indexed":true,"internalType":"address"},{"name":"newOwner","type":"address","indexed":true,"internalType":"address"}],"anonymous":false},{"type":"error","name":"InvalidChainId","inputs":[]},{"type":"error","name":"OwnableInvalidOwner","inputs":[{"name":"owner","type":"address","internalType":"address"}]},{"type":"error","name":"OwnableUnauthorizedAccount","inputs":[{"name":"account","type":"address","internalType":"address"}]}],"bytecode":{"object":"0x60e06040526001600655348015610014575f5ffd5b50604051618ab3380380618ab3833981810160405281019061003691906106e4565b806100456101a760201b60201c565b5f5f6101000a81548173ffffffffffffffffffffffffffffffffffffffff021916908373ffffffffffffffffffffffffffffffffffffffff1602179055503373ffffffffffffffffffffffffffffffffffffffff1660808173ffffffffffffffffffffffffffffffffffffffff16815250505f73ffffffffffffffffffffffffffffffffffffffff168173ffffffffffffffffffffffffffffffffffffffff1603610127575f6040517f1e4fbdf700000000000000000000000000000000000000000000000000000000815260040161011e9190610743565b60405180910390fd5b6101368161034360201b60201c565b508273ffffffffffffffffffffffffffffffffffffffff1660a08173ffffffffffffffffffffffffffffffffffffffff16815250508173ffffffffffffffffffffffffffffffffffffffff1660c08173ffffffffffffffffffffffffffffffffffffffff168152505050505061093d565b5f6101b661040660201b60201c565b156102b2575f30306040516101ca9061066c565b6101d592919061075c565b604051809103905ff0801580156101ee573d5f5f3e3d5ffd5b5090508073ffffffffffffffffffffffffffffffffffffffff166384cf84e17fb4248e4b5d3298922937afd56d86ac391f3ac2ea06f9764b30e92d377afaf51d5f1b6040518263ffffffff1660e01b815260040161024c919061079b565b5f604051808303815f87803b158015610263575f5ffd5b505af1158015610275573d5f5f3e3d5ffd5b505050508060405161028690610679565b610290919061080f565b604051809103905ff0801580156102a9573d5f5f3e3d5ffd5b50915050610340565b6102c061042f60201b60201c565b156102df575f6102d46104a360201b60201c565b905080915050610340565b6102ed6104c360201b60201c565b1561030e575f61030161053360201b60201c565b9250505080915050610340565b6040517f7a47c9a200000000000000000000000000000000000000000000000000000000815260040160405180910390fd5b90565b5f60015f9054906101000a900473ffffffffffffffffffffffffffffffffffffffff1690508160015f6101000a81548173ffffffffffffffffffffffffffffffffffffffff021916908373ffffffffffffffffffffffffffffffffffffffff1602179055508173ffffffffffffffffffffffffffffffffffffffff168173ffffffffffffffffffffffffffffffffffffffff167f8be0079c531659141344cd1fd0a4f28419497f9722a3daafe3b4186f6b6457e060405160405180910390a35050565b5f61041561058f60201b60201c565b8061042a57506104296105a760201b60201c565b5b905090565b5f600146148061043f5750600a46145b8061044a5750608946145b80610456575061014446145b8061046257506101e046145b8061046e57506102eb46145b8061047a575061210546145b80610486575061a4b146145b80610492575061a4ba46145b8061049e575061e70846145b905090565b5f5f731ee8a3b907ebcdfc33f76e3c7aae6ffd2efa5b7390508091505090565b5f62aa36a74614806104d6575061012c46145b806104e2575061022146145b806104ee57506112c146145b806104fa575061e70546145b8061050757506201388246145b80610514575062014a3446145b80610521575062066eee46145b8061052e575062aa37dc46145b905090565b5f5f5f5f73711b293738290768f3ed1dbf2d00e0f9eec19e6b90505f739ade0b5f34402aefdcbe1a8733d5995ff827f58690505f737925a78734fc7f2cb69d7e03d81467bb851f9eb89050828282955095509550505050909192565b5f617a694614806105a257506204991946145b905090565b5f5f5f601e73f4e4fdca9d5d55e64525e314391996a15f7ec6006105cb9190610855565b73ffffffffffffffffffffffffffffffffffffffff166040516105ed906108c9565b5f60405180830381855afa9150503d805f8114610625576040519150601f19603f3d011682016040523d82523d5f602084013e61062a565b606091505b509150915081158061063c57505f8151145b1561064b575f92505050610669565b5f818060200190518101906106609190610912565b90508093505050505b90565b611fd08061442b83390190565b6126b8806163fb83390190565b5f5ffd5b5f73ffffffffffffffffffffffffffffffffffffffff82169050919050565b5f6106b38261068a565b9050919050565b6106c3816106a9565b81146106cd575f5ffd5b50565b5f815190506106de816106ba565b92915050565b5f5f5f606084860312156106fb576106fa610686565b5b5f610708868287016106d0565b9350506020610719868287016106d0565b925050604061072a868287016106d0565b9150509250925092565b61073d816106a9565b82525050565b5f6020820190506107565f830184610734565b92915050565b5f60408201905061076f5f830185610734565b61077c6020830184610734565b9392505050565b5f819050919050565b61079581610783565b82525050565b5f6020820190506107ae5f83018461078c565b92915050565b5f819050919050565b5f6107d76107d26107cd8461068a565b6107b4565b61068a565b9050919050565b5f6107e8826107bd565b9050919050565b5f6107f9826107de565b9050919050565b610809816107ef565b82525050565b5f6020820190506108225f830184610800565b92915050565b7f4e487b71000000000000000000000000000000000000000000000000000000005f52601160045260245ffd5b5f61085f8261068a565b915061086a8361068a565b9250828201905073ffffffffffffffffffffffffffffffffffffffff81111561089657610895610828565b5b92915050565b5f81905092915050565b50565b5f6108b45f8361089c565b91506108bf826108a6565b5f82019050919050565b5f6108d3826108a9565b9150819050919050565b5f8115159050919050565b6108f1816108dd565b81146108fb575f5ffd5b50565b5f8151905061090c816108e8565b92915050565b5f6020828403121561092757610926610686565b5b5f610934848285016108fe565b91505092915050565b60805160a05160c051613aa86109835f395f81816109fa01528181610e4801528181611272015261167501525f818161069f01526106d801525f61049f0152613aa85ff3fe608060405234801561000f575f5ffd5b5060043610610109575f3560e01c8063baf9fbde116100a0578063e5e5dff11161006f578063e5e5dff1146102d4578063ee8c4bbf146102f0578063f2fde38b14610320578063fbfa77cf1461033c578063fd14fad41461035a57610109565b8063baf9fbde1461021e578063c15920de1461024e578063d0b507091461026a578063dc2f87441461029a57610109565b806385117005116100dc57806385117005146101965780638da5cb5b146101c65780639b8b30c8146101e4578063b5f5f3e81461020057610109565b8063120aa8771461010d5780632b7ac3f31461013d578063365ba2dd1461015b578063715018a61461018c575b5f5ffd5b61012760048036038101906101229190612167565b610378565b60405161013491906121bf565b60405180910390f35b6101456103a2565b6040516101529190612233565b60405180910390f35b6101756004803603810190610170919061224c565b6103c6565b604051610183929190612286565b60405180910390f35b61019461044d565b005b6101b060048036038101906101ab919061224c565b610460565b6040516101bd91906122ad565b60405180910390f35b6101ce610475565b6040516101db91906122d5565b60405180910390f35b6101fe60048036038101906101f99190612329565b61049d565b005b61020861069d565b6040516102159190612374565b60405180910390f35b6102386004803603810190610233919061224c565b6106c1565b60405161024591906122ad565b60405180910390f35b610268600480360381019061026391906123b0565b6106d6565b005b610284600480360381019061027f9190612473565b610ae0565b60405161029191906122ad565b60405180910390f35b6102b460048036038101906102af919061252a565b610f32565b6040516102cb9b9a9998979695949392919061267e565b60405180910390f35b6102ee60048036038101906102e9919061252a565b6110ec565b005b61030a6004803603810190610305919061252a565b611352565b60405161031791906128ac565b60405180910390f35b61033a6004803603810190610335919061224c565b6115ef565b005b610344611673565b60405161035191906128ec565b60405180910390f35b610362611697565b60405161036f91906122ad565b60405180910390f35b6005602052815f5260405f20602052805f5260405f205f915091509054906101000a900460ff1681565b5f5f9054906101000a900473ffffffffffffffffffffffffffffffffffffffff1681565b5f5f60035f8473ffffffffffffffffffffffffffffffffffffffff1673ffffffffffffffffffffffffffffffffffffffff1681526020019081526020015f205460045f8573ffffffffffffffffffffffffffffffffffffffff1673ffffffffffffffffffffffffffffffffffffffff1681526020019081526020015f205491509150915091565b61045561169d565b61045e5f611724565b565b6004602052805f5260405f205f915090505481565b5f60015f9054906101000a900473ffffffffffffffffffffffffffffffffffffffff16905090565b7f000000000000000000000000000000000000000000000000000000000000000073ffffffffffffffffffffffffffffffffffffffff163373ffffffffffffffffffffffffffffffffffffffff161461052b576040517f08c379a000000000000000000000000000000000000000000000000000000000815260040161052290612975565b60405180910390fd5b6105336117e7565b806105425750610541611804565b5b610581576040517f08c379a000000000000000000000000000000000000000000000000000000000815260040161057890612a03565b60405180910390fd5b5f73ffffffffffffffffffffffffffffffffffffffff168173ffffffffffffffffffffffffffffffffffffffff16633fd66f226040518163ffffffff1660e01b8152600401602060405180830381865afa1580156105e1573d5f5f3e3d5ffd5b505050506040513d601f19601f820116820180604052508101906106059190612a5c565b73ffffffffffffffffffffffffffffffffffffffff160361065b576040517f08c379a000000000000000000000000000000000000000000000000000000000815260040161065290612af7565b60405180910390fd5b805f5f6101000a81548173ffffffffffffffffffffffffffffffffffffffff021916908373ffffffffffffffffffffffffffffffffffffffff16021790555050565b7f000000000000000000000000000000000000000000000000000000000000000081565b6003602052805f5260405f205f915090505481565b7f000000000000000000000000000000000000000000000000000000000000000061070083611874565b61070a8282611a04565b5f60025f8681526020019081526020015f2090505f600281111561073157610730612555565b5b816006015f9054906101000a900460ff16600281111561075457610753612555565b5b14610794576040517f08c379a000000000000000000000000000000000000000000000000000000000815260040161078b90612b5f565b60405180910390fd5b60055f8681526020019081526020015f205f3373ffffffffffffffffffffffffffffffffffffffff1673ffffffffffffffffffffffffffffffffffffffff1681526020019081526020015f205f9054906101000a900460ff161561082d576040517f08c379a000000000000000000000000000000000000000000000000000000000815260040161082490612bc7565b60405180910390fd5b5f816005015411610873576040517f08c379a000000000000000000000000000000000000000000000000000000000815260040161086a90612c2f565b60405180910390fd5b6001816006015f6101000a81548160ff0219169083600281111561089a57610899612555565b5b0217905550338160060160016101000a81548173ffffffffffffffffffffffffffffffffffffffff021916908373ffffffffffffffffffffffffffffffffffffffff160217905550428160080181905550600160055f8781526020019081526020015f205f3373ffffffffffffffffffffffffffffffffffffffff1673ffffffffffffffffffffffffffffffffffffffff1681526020019081526020015f205f6101000a81548160ff02191690831515021790555060035f3373ffffffffffffffffffffffffffffffffffffffff1673ffffffffffffffffffffffffffffffffffffffff1681526020019081526020015f205f81548092919061099c90612c7a565b9190505550806005015460045f3373ffffffffffffffffffffffffffffffffffffffff1673ffffffffffffffffffffffffffffffffffffffff1681526020019081526020015f205f8282546109f19190612cc1565b925050819055507f000000000000000000000000000000000000000000000000000000000000000073ffffffffffffffffffffffffffffffffffffffff1663229c9f6c863384600501546040518463ffffffff1660e01b8152600401610a5993929190612cf4565b5f604051808303815f87803b158015610a70575f5ffd5b505af1158015610a82573d5f5f3e3d5ffd5b505050503373ffffffffffffffffffffffffffffffffffffffff16857f285d0f935b4d6592b80efc46cc3d9eb3e93e27fe245f0a6c2b5b9a9d04800ee78360050154604051610ad191906122ad565b60405180910390a35050505050565b5f5f8211610b23576040517f08c379a0000000000000000000000000000000000000000000000000000000008152600401610b1a90612d73565b60405180910390fd5b5f8787905011610b68576040517f08c379a0000000000000000000000000000000000000000000000000000000008152600401610b5f90612ddb565b60405180910390fd5b5f8585905011610bad576040517f08c379a0000000000000000000000000000000000000000000000000000000008152600401610ba490612e43565b60405180910390fd5b60065f815480929190610bbf90612c7a565b9190505590506040518061016001604052808281526020013373ffffffffffffffffffffffffffffffffffffffff168152602001896004811115610c0657610c05612555565b5b815260200188888080601f0160208091040260200160405190810160405280939291908181526020018383808284375f81840152601f19601f82011690508083019250505050505050815260200186868080601f0160208091040260200160405190810160405280939291908181526020018383808284375f81840152601f19601f8201169050808301925050505050505081526020018481526020018381526020015f6002811115610cbc57610cbb612555565b5b81526020015f73ffffffffffffffffffffffffffffffffffffffff1681526020014281526020015f81525060025f8381526020019081526020015f205f820151815f01556020820151816001015f6101000a81548173ffffffffffffffffffffffffffffffffffffffff021916908373ffffffffffffffffffffffffffffffffffffffff16021790555060408201518160010160146101000a81548160ff02191690836004811115610d7157610d70612555565b5b02179055506060820151816002019081610d8b9190613082565b506080820151816003019081610da19190613082565b5060a0820151816004015560c0820151816005015560e0820151816006015f6101000a81548160ff02191690836002811115610de057610ddf612555565b5b02179055506101008201518160060160016101000a81548173ffffffffffffffffffffffffffffffffffffffff021916908373ffffffffffffffffffffffffffffffffffffffff160217905550610120820151816007015561014082015181600801559050507f000000000000000000000000000000000000000000000000000000000000000073ffffffffffffffffffffffffffffffffffffffff1663e2bbb15882846040518363ffffffff1660e01b8152600401610ea1929190612286565b5f604051808303815f87803b158015610eb8575f5ffd5b505af1158015610eca573d5f5f3e3d5ffd5b505050503373ffffffffffffffffffffffffffffffffffffffff16817f252aa1a15150bafa74a6881d6b00eb706928b5158624bdd5b3fc2bcd5ff01cb78a8a8a8a8a89604051610f1f9695949392919061318b565b60405180910390a3979650505050505050565b6002602052805f5260405f205f91509050805f015490806001015f9054906101000a900473ffffffffffffffffffffffffffffffffffffffff16908060010160149054906101000a900460ff1690806002018054610f8f90612ebb565b80601f0160208091040260200160405190810160405280929190818152602001828054610fbb90612ebb565b80156110065780601f10610fdd57610100808354040283529160200191611006565b820191905f5260205f20905b815481529060010190602001808311610fe957829003601f168201915b50505050509080600301805461101b90612ebb565b80601f016020809104026020016040519081016040528092919081815260200182805461104790612ebb565b80156110925780601f1061106957610100808354040283529160200191611092565b820191905f5260205f20905b81548152906001019060200180831161107557829003601f168201915b505050505090806004015490806005015490806006015f9054906101000a900460ff16908060060160019054906101000a900473ffffffffffffffffffffffffffffffffffffffff1690806007015490806008015490508b565b5f60025f8381526020019081526020015f2090503373ffffffffffffffffffffffffffffffffffffffff16816001015f9054906101000a900473ffffffffffffffffffffffffffffffffffffffff1673ffffffffffffffffffffffffffffffffffffffff16148061118f5750611160610475565b73ffffffffffffffffffffffffffffffffffffffff163373ffffffffffffffffffffffffffffffffffffffff16145b6111ce576040517f08c379a00000000000000000000000000000000000000000000000000000000081526004016111c59061322a565b60405180910390fd5b5f60028111156111e1576111e0612555565b5b816006015f9054906101000a900460ff16600281111561120457611203612555565b5b14611244576040517f08c379a000000000000000000000000000000000000000000000000000000000815260040161123b90612b5f565b60405180910390fd5b6002816006015f6101000a81548160ff0219169083600281111561126b5761126a612555565b5b02179055507f000000000000000000000000000000000000000000000000000000000000000073ffffffffffffffffffffffffffffffffffffffff1663e796a6eb83836001015f9054906101000a900473ffffffffffffffffffffffffffffffffffffffff1684600501546040518463ffffffff1660e01b81526004016112f493929190612cf4565b5f604051808303815f87803b15801561130b575f5ffd5b505af115801561131d573d5f5f3e3d5ffd5b50505050817f92717314c0b0f9d632e1d46a0b8437778ff9daee1db8ec295f2bc0b57c4bcaac60405160405180910390a25050565b61135a611f1e565b60025f8381526020019081526020015f20604051806101600160405290815f8201548152602001600182015f9054906101000a900473ffffffffffffffffffffffffffffffffffffffff1673ffffffffffffffffffffffffffffffffffffffff1673ffffffffffffffffffffffffffffffffffffffff1681526020016001820160149054906101000a900460ff1660048111156113fa576113f9612555565b5b600481111561140c5761140b612555565b5b815260200160028201805461142090612ebb565b80601f016020809104026020016040519081016040528092919081815260200182805461144c90612ebb565b80156114975780601f1061146e57610100808354040283529160200191611497565b820191905f5260205f20905b81548152906001019060200180831161147a57829003601f168201915b505050505081526020016003820180546114b090612ebb565b80601f01602080910402602001604051908101604052809291908181526020018280546114dc90612ebb565b80156115275780601f106114fe57610100808354040283529160200191611527565b820191905f5260205f20905b81548152906001019060200180831161150a57829003601f168201915b505050505081526020016004820154815260200160058201548152602001600682015f9054906101000a900460ff16600281111561156857611567612555565b5b600281111561157a57611579612555565b5b81526020016006820160019054906101000a900473ffffffffffffffffffffffffffffffffffffffff1673ffffffffffffffffffffffffffffffffffffffff1673ffffffffffffffffffffffffffffffffffffffff168152602001600782015481526020016008820154815250509050919050565b6115f761169d565b5f73ffffffffffffffffffffffffffffffffffffffff168173ffffffffffffffffffffffffffffffffffffffff1603611667575f6040517f1e4fbdf700000000000000000000000000000000000000000000000000000000815260040161165e91906122d5565b60405180910390fd5b61167081611724565b50565b7f000000000000000000000000000000000000000000000000000000000000000081565b60065481565b6116a5611aa3565b73ffffffffffffffffffffffffffffffffffffffff166116c3610475565b73ffffffffffffffffffffffffffffffffffffffff1614611722576116e6611aa3565b6040517f118cdaa700000000000000000000000000000000000000000000000000000000815260040161171991906122d5565b60405180910390fd5b565b5f60015f9054906101000a900473ffffffffffffffffffffffffffffffffffffffff1690508160015f6101000a81548173ffffffffffffffffffffffffffffffffffffffff021916908373ffffffffffffffffffffffffffffffffffffffff1602179055508173ffffffffffffffffffffffffffffffffffffffff168173ffffffffffffffffffffffffffffffffffffffff167f8be0079c531659141344cd1fd0a4f28419497f9722a3daafe3b4186f6b6457e060405160405180910390a35050565b5f6117f0611aaa565b806117ff57506117fe611ac2565b5b905090565b5f62aa36a7461480611817575061012c46145b80611823575061022146145b8061182f57506112c146145b8061183b575061e70546145b8061184857506201388246145b80611855575062014a3446145b80611862575062066eee46145b8061186f575062aa37dc46145b905090565b5f5f60025f8481526020019081526020015f2060010160149054906101000a900460ff1690505f60048111156118ad576118ac612555565b5b8160048111156118c0576118bf612555565b5b036118d557637fe092f460e01b9150506119ff565b600160048111156118e9576118e8612555565b5b8160048111156118fc576118fb612555565b5b036119115763c044930860e01b9150506119ff565b6002600481111561192557611924612555565b5b81600481111561193857611937612555565b5b0361194d5763a34f8b7960e01b9150506119ff565b6003600481111561196157611960612555565b5b81600481111561197457611973612555565b5b03611989576337b5af0960e01b9150506119ff565b60048081111561199c5761199b612555565b5b8160048111156119af576119ae612555565b5b036119c457632d78f57660e01b9150506119ff565b6040517f08c379a00000000000000000000000000000000000000000000000000000000081526004016119f690613292565b60405180910390fd5b919050565b5f5f611a0e611b87565b915091505f5f9054906101000a900473ffffffffffffffffffffffffffffffffffffffff1673ffffffffffffffffffffffffffffffffffffffff1663c4fa74e5838387876040518563ffffffff1660e01b8152600401611a7194939291906134fb565b5f6040518083038186803b158015611a87575f5ffd5b505afa158015611a99573d5f5f3e3d5ffd5b5050505050505050565b5f33905090565b5f617a69461480611abd57506204991946145b905090565b5f5f5f601e73f4e4fdca9d5d55e64525e314391996a15f7ec600611ae69190613542565b73ffffffffffffffffffffffffffffffffffffffff16604051611b08906135b6565b5f60405180830381855afa9150503d805f8114611b40576040519150601f19603f3d011682016040523d82523d5f602084013e611b45565b606091505b5091509150811580611b5757505f8151145b15611b66575f92505050611b84565b5f81806020019051810190611b7b91906135f4565b90508093505050505b90565b611b8f611fbf565b5f5f5f366004908092611ba493929190613627565b810190611bb1919061393a565b90505f6020806020806020611bc69190612cc1565b611bd09190612cc1565b611bda9190612cc1565b611be49190612cc1565b60208060206101006020611bf89190612cc1565b611c029190612cc1565b611c0c9190612cc1565b611c169190612cc1565b6004611c229190612cc1565b611c2c9190612cc1565b90505f6020806020806020611c419190612cc1565b611c4b9190612cc1565b611c559190612cc1565b611c5f9190612cc1565b6020806020806020611c719190612cc1565b611c7b9190612cc1565b611c859190612cc1565b611c8f9190612cc1565b60208060206101006020611ca39190612cc1565b611cad9190612cc1565b611cb79190612cc1565b611cc19190612cc1565b611ccb9190612cc1565b8460400151611cda9190613966565b611ce49190613966565b90505f8183611cf39190612cc1565b90505f5f3660208060206101006020611d0c9190612cc1565b611d169190612cc1565b611d209190612cc1565b611d2a9190612cc1565b6004611d369190612cc1565b906020806020806020611d499190612cc1565b611d539190612cc1565b611d5d9190612cc1565b611d679190612cc1565b60208060206101006020611d7b9190612cc1565b611d859190612cc1565b611d8f9190612cc1565b611d999190612cc1565b6004611da59190612cc1565b611daf9190612cc1565b92611dbc93929190613627565b8080601f0160208091040260200160405190810160405280939291908181526020018383808284375f81840152601f19601f8201169050808301925050505050505090505f5f3686908592611e1393929190613627565b8080601f0160208091040260200160405190810160405280939291908181526020018383808284375f81840152601f19601f8201169050808301925050505050505090505f82611e61611f07565b604051602001611e719190613999565b60405160208183030381529060405283604051602001611e93939291906139ed565b60405160208183030381529060405290505f600282604051611eb59190613a1d565b602060405180830381855afa158015611ed0573d5f5f3e3d5ffd5b5050506040513d601f19601f82011682018060405250810190611ef39190613a47565b905087819950995050505050505050509091565b611f0f611fbf565b611f17611fbf565b8091505090565b6040518061016001604052805f81526020015f73ffffffffffffffffffffffffffffffffffffffff1681526020015f6004811115611f5f57611f5e612555565b5b815260200160608152602001606081526020015f81526020015f81526020015f6002811115611f9157611f90612555565b5b81526020015f73ffffffffffffffffffffffffffffffffffffffff1681526020015f81526020015f81525090565b6040518060800160405280611fd2611ff1565b81526020015f81526020015f8152602001611feb612047565b81525090565b60405180606001604052805f7bffffffffffffffffffffffffffffffffffffffffffffffffffffffff191681526020016120296120a6565b81526020015f600181111561204157612040612555565b5b81525090565b6040518060a001604052805f73ffffffffffffffffffffffffffffffffffffffff1681526020015f7bffffffffffffffffffffffffffffffffffffffffffffffffffffffff191681526020015f81526020015f81526020015f81525090565b604051806101000160405280600890602082028036833780820191505090505090565b5f604051905090565b5f5ffd5b5f5ffd5b5f819050919050565b6120ec816120da565b81146120f6575f5ffd5b50565b5f81359050612107816120e3565b92915050565b5f73ffffffffffffffffffffffffffffffffffffffff82169050919050565b5f6121368261210d565b9050919050565b6121468161212c565b8114612150575f5ffd5b50565b5f813590506121618161213d565b92915050565b5f5f6040838503121561217d5761217c6120d2565b5b5f61218a858286016120f9565b925050602061219b85828601612153565b9150509250929050565b5f8115159050919050565b6121b9816121a5565b82525050565b5f6020820190506121d25f8301846121b0565b92915050565b5f819050919050565b5f6121fb6121f66121f18461210d565b6121d8565b61210d565b9050919050565b5f61220c826121e1565b9050919050565b5f61221d82612202565b9050919050565b61222d81612213565b82525050565b5f6020820190506122465f830184612224565b92915050565b5f60208284031215612261576122606120d2565b5b5f61226e84828501612153565b91505092915050565b612280816120da565b82525050565b5f6040820190506122995f830185612277565b6122a66020830184612277565b9392505050565b5f6020820190506122c05f830184612277565b92915050565b6122cf8161212c565b82525050565b5f6020820190506122e85f8301846122c6565b92915050565b5f6122f88261212c565b9050919050565b612308816122ee565b8114612312575f5ffd5b50565b5f81359050612323816122ff565b92915050565b5f6020828403121561233e5761233d6120d2565b5b5f61234b84828501612315565b91505092915050565b5f61235e82612202565b9050919050565b61236e81612354565b82525050565b5f6020820190506123875f830184612365565b92915050565b5f5ffd5b5f61022082840312156123a7576123a661238d565b5b81905092915050565b5f5f61024083850312156123c7576123c66120d2565b5b5f6123d4858286016120f9565b92505060206123e585828601612391565b9150509250929050565b600581106123fb575f5ffd5b50565b5f8135905061240c816123ef565b92915050565b5f5ffd5b5f5ffd5b5f5ffd5b5f5f83601f84011261243357612432612412565b5b8235905067ffffffffffffffff8111156124505761244f612416565b5b60208301915083600182028301111561246c5761246b61241a565b5b9250929050565b5f5f5f5f5f5f5f60a0888a03121561248e5761248d6120d2565b5b5f61249b8a828b016123fe565b975050602088013567ffffffffffffffff8111156124bc576124bb6120d6565b5b6124c88a828b0161241e565b9650965050604088013567ffffffffffffffff8111156124eb576124ea6120d6565b5b6124f78a828b0161241e565b9450945050606061250a8a828b016120f9565b925050608061251b8a828b016120f9565b91505092959891949750929550565b5f6020828403121561253f5761253e6120d2565b5b5f61254c848285016120f9565b91505092915050565b7f4e487b71000000000000000000000000000000000000000000000000000000005f52602160045260245ffd5b6005811061259357612592612555565b5b50565b5f8190506125a382612582565b919050565b5f6125b282612596565b9050919050565b6125c2816125a8565b82525050565b5f81519050919050565b5f82825260208201905092915050565b8281835e5f83830152505050565b5f601f19601f8301169050919050565b5f61260a826125c8565b61261481856125d2565b93506126248185602086016125e2565b61262d816125f0565b840191505092915050565b6003811061264957612648612555565b5b50565b5f81905061265982612638565b919050565b5f6126688261264c565b9050919050565b6126788161265e565b82525050565b5f610160820190506126925f83018e612277565b61269f602083018d6122c6565b6126ac604083018c6125b9565b81810360608301526126be818b612600565b905081810360808301526126d2818a612600565b90506126e160a0830189612277565b6126ee60c0830188612277565b6126fb60e083018761266f565b6127096101008301866122c6565b612717610120830185612277565b612725610140830184612277565b9c9b505050505050505050505050565b61273e816120da565b82525050565b61274d8161212c565b82525050565b61275c816125a8565b82525050565b5f82825260208201905092915050565b5f61277c826125c8565b6127868185612762565b93506127968185602086016125e2565b61279f816125f0565b840191505092915050565b6127b38161265e565b82525050565b5f61016083015f8301516127cf5f860182612735565b5060208301516127e26020860182612744565b5060408301516127f56040860182612753565b506060830151848203606086015261280d8282612772565b915050608083015184820360808601526128278282612772565b91505060a083015161283c60a0860182612735565b5060c083015161284f60c0860182612735565b5060e083015161286260e08601826127aa565b50610100830151612877610100860182612744565b5061012083015161288c610120860182612735565b506101408301516128a1610140860182612735565b508091505092915050565b5f6020820190508181035f8301526128c481846127b9565b905092915050565b5f6128d682612202565b9050919050565b6128e6816128cc565b82525050565b5f6020820190506128ff5f8301846128dd565b92915050565b7f4f6e6c79206465706c6f7965722063616e206368616e676520766572696669655f8201527f7200000000000000000000000000000000000000000000000000000000000000602082015250565b5f61295f6021836125d2565b915061296a82612905565b604082019050919050565b5f6020820190508181035f83015261298c81612953565b9050919050565b7f4368616e67696e6720766572696669657273206973206f6e6c7920616c6c6f775f8201527f6564206f6e206465766e6574206f7220746573746e6574000000000000000000602082015250565b5f6129ed6037836125d2565b91506129f882612993565b604082019050919050565b5f6020820190508181035f830152612a1a816129e1565b9050919050565b5f612a2b8261212c565b9050919050565b612a3b81612a21565b8114612a45575f5ffd5b50565b5f81519050612a5681612a32565b92915050565b5f60208284031215612a7157612a706120d2565b5b5f612a7e84828501612a48565b91505092915050565b7f56657269666965722773207265706f7369746f727920616464726573732069735f8201527f206e6f7420736574000000000000000000000000000000000000000000000000602082015250565b5f612ae16028836125d2565b9150612aec82612a87565b604082019050919050565b5f6020820190508181035f830152612b0e81612ad5565b9050919050565b7f426f756e7479206e6f74206163746976650000000000000000000000000000005f82015250565b5f612b496011836125d2565b9150612b5482612b15565b602082019050919050565b5f6020820190508181035f830152612b7681612b3d565b9050919050565b7f416c726561647920636c61696d656400000000000000000000000000000000005f82015250565b5f612bb1600f836125d2565b9150612bbc82612b7d565b602082019050919050565b5f6020820190508181035f830152612bde81612ba5565b9050919050565b7f496e76616c696420626f756e74790000000000000000000000000000000000005f82015250565b5f612c19600e836125d2565b9150612c2482612be5565b602082019050919050565b5f6020820190508181035f830152612c4681612c0d565b9050919050565b7f4e487b71000000000000000000000000000000000000000000000000000000005f52601160045260245ffd5b5f612c84826120da565b91507fffffffffffffffffffffffffffffffffffffffffffffffffffffffffffffffff8203612cb657612cb5612c4d565b5b600182019050919050565b5f612ccb826120da565b9150612cd6836120da565b9250828201905080821115612cee57612ced612c4d565b5b92915050565b5f606082019050612d075f830186612277565b612d1460208301856122c6565b612d216040830184612277565b949350505050565b7f526577617264206d7573742062652067726561746572207468616e20300000005f82015250565b5f612d5d601d836125d2565b9150612d6882612d29565b602082019050919050565b5f6020820190508181035f830152612d8a81612d51565b9050919050565b7f5265706f206f776e6572207265717569726564000000000000000000000000005f82015250565b5f612dc56013836125d2565b9150612dd082612d91565b602082019050919050565b5f6020820190508181035f830152612df281612db9565b9050919050565b7f5265706f206e616d6520726571756972656400000000000000000000000000005f82015250565b5f612e2d6012836125d2565b9150612e3882612df9565b602082019050919050565b5f6020820190508181035f830152612e5a81612e21565b9050919050565b7f4e487b71000000000000000000000000000000000000000000000000000000005f52604160045260245ffd5b7f4e487b71000000000000000000000000000000000000000000000000000000005f52602260045260245ffd5b5f6002820490506001821680612ed257607f821691505b602082108103612ee557612ee4612e8e565b5b50919050565b5f819050815f5260205f209050919050565b5f6020601f8301049050919050565b5f82821b905092915050565b5f60088302612f477fffffffffffffffffffffffffffffffffffffffffffffffffffffffffffffffff82612f0c565b612f518683612f0c565b95508019841693508086168417925050509392505050565b5f612f83612f7e612f79846120da565b6121d8565b6120da565b9050919050565b5f819050919050565b612f9c83612f69565b612fb0612fa882612f8a565b848454612f18565b825550505050565b5f5f905090565b612fc7612fb8565b612fd2818484612f93565b505050565b5b81811015612ff557612fea5f82612fbf565b600181019050612fd8565b5050565b601f82111561303a5761300b81612eeb565b61301484612efd565b81016020851015613023578190505b61303761302f85612efd565b830182612fd7565b50505b505050565b5f82821c905092915050565b5f61305a5f198460080261303f565b1980831691505092915050565b5f613072838361304b565b9150826002028217905092915050565b61308b826125c8565b67ffffffffffffffff8111156130a4576130a3612e61565b5b6130ae8254612ebb565b6130b9828285612ff9565b5f60209050601f8311600181146130ea575f84156130d8578287015190505b6130e28582613067565b865550613149565b601f1984166130f886612eeb565b5f5b8281101561311f578489015182556001820191506020850194506020810190506130fa565b8683101561313c5784890151613138601f89168261304b565b8355505b6001600288020188555050505b505050505050565b828183375f83830152505050565b5f61316a83856125d2565b9350613177838584613151565b613180836125f0565b840190509392505050565b5f60808201905061319e5f8301896125b9565b81810360208301526131b181878961315f565b905081810360408301526131c681858761315f565b90506131d56060830184612277565b979650505050505050565b7f4e6f7420617574686f72697a65640000000000000000000000000000000000005f82015250565b5f613214600e836125d2565b915061321f826131e0565b602082019050919050565b5f6020820190508181035f83015261324181613208565b9050919050565b7f496e76616c696420616374696f6e0000000000000000000000000000000000005f82015250565b5f61327c600e836125d2565b915061328782613248565b602082019050919050565b5f6020820190508181035f8301526132a981613270565b9050919050565b5f7fffffffff0000000000000000000000000000000000000000000000000000000082169050919050565b6132e4816132b0565b82525050565b5f60089050919050565b5f81905092915050565b5f819050919050565b5f819050919050565b61331981613307565b82525050565b5f61332a8383613310565b60208301905092915050565b5f602082019050919050565b61334b816132ea565b61335581846132f4565b9250613360826132fe565b805f5b83811015613390578151613377878261331f565b965061338283613336565b925050600181019050613363565b505050505050565b600281106133a9576133a8612555565b5b50565b5f8190506133b982613398565b919050565b5f6133c8826133ac565b9050919050565b6133d8816133be565b82525050565b61014082015f8201516133f35f8501826132db565b5060208201516134066020850182613342565b50604082015161341a6101208501826133cf565b50505050565b60a082015f8201516134345f850182612744565b50602082015161344760208501826132db565b50604082015161345a6040850182612735565b50606082015161346d6060850182612735565b5060808201516134806080850182613310565b50505050565b61022082015f82015161349b5f8501826133de565b5060208201516134af610140850182613310565b5060408201516134c3610160850182612735565b5060608201516134d7610180850182613420565b50505050565b6134e681613307565b82525050565b6134f5816132b0565b82525050565b5f6102808201905061350f5f830187613486565b61351d6102208301866134dd565b61352b6102408301856122c6565b6135396102608301846134ec565b95945050505050565b5f61354c8261210d565b91506135578361210d565b9250828201905073ffffffffffffffffffffffffffffffffffffffff81111561358357613582612c4d565b5b92915050565b5f81905092915050565b50565b5f6135a15f83613589565b91506135ac82613593565b5f82019050919050565b5f6135c082613596565b9150819050919050565b6135d3816121a5565b81146135dd575f5ffd5b50565b5f815190506135ee816135ca565b92915050565b5f60208284031215613609576136086120d2565b5b5f613616848285016135e0565b91505092915050565b5f5ffd5b5f5ffd5b5f5f8585111561363a5761363961361f565b5b8386111561364b5761364a613623565b5b6001850283019150848603905094509492505050565b5f5ffd5b61366e826125f0565b810181811067ffffffffffffffff8211171561368d5761368c612e61565b5b80604052505050565b5f61369f6120c9565b90506136ab8282613665565b919050565b6136b9816132b0565b81146136c3575f5ffd5b50565b5f813590506136d4816136b0565b92915050565b5f67ffffffffffffffff8211156136f4576136f3612e61565b5b602082029050919050565b61370881613307565b8114613712575f5ffd5b50565b5f81359050613723816136ff565b92915050565b5f61373b613736846136da565b613696565b905080602084028301858111156137555761375461241a565b5b835b8181101561377e578061376a8882613715565b845260208401935050602081019050613757565b5050509392505050565b5f82601f83011261379c5761379b612412565b5b60086137a9848285613729565b91505092915050565b600281106137be575f5ffd5b50565b5f813590506137cf816137b2565b92915050565b5f61014082840312156137eb576137ea613661565b5b6137f56060613696565b90505f613804848285016136c6565b5f83015250602061381784828501613788565b60208301525061012061382c848285016137c1565b60408301525092915050565b5f60a0828403121561384d5761384c613661565b5b61385760a0613696565b90505f61386684828501612153565b5f830152506020613879848285016136c6565b602083015250604061388d848285016120f9565b60408301525060606138a1848285016120f9565b60608301525060806138b584828501613715565b60808301525092915050565b5f61022082840312156138d7576138d6613661565b5b6138e16080613696565b90505f6138f0848285016137d5565b5f8301525061014061390484828501613715565b602083015250610160613919848285016120f9565b60408301525061018061392e84828501613838565b60608301525092915050565b5f61022082840312156139505761394f6120d2565b5b5f61395d848285016138c1565b91505092915050565b5f613970826120da565b915061397b836120da565b925082820390508181111561399357613992612c4d565b5b92915050565b5f610220820190506139ad5f830184613486565b92915050565b5f81519050919050565b5f6139c7826139b3565b6139d18185613589565b93506139e18185602086016125e2565b80840191505092915050565b5f6139f882866139bd565b9150613a0482856139bd565b9150613a1082846139bd565b9150819050949350505050565b5f613a2882846139bd565b915081905092915050565b5f81519050613a41816136ff565b92915050565b5f60208284031215613a5c57613a5b6120d2565b5b5f613a6984828501613a33565b9150509291505056fea26469706673582212201d4c53c8039947ca0839b521b141136400333cad0c54d808021add2f8954028764736f6c634300081d0033608060405234801561000f575f5ffd5b50604051611fd0380380611fd083398181016040528101906100319190610342565b6100435f5f1b8361007c60201b60201c565b506100747fb19546dff01e856fb3f010c267a7b1c60363cf8a4664e21cc89c26224620214e8261007c60201b60201c565b505050610380565b5f5f61008e84846100c560201b60201c565b905080156100bb576100b98360015f8781526020019081526020015f206101ba60201b90919060201c565b505b8091505092915050565b5f6100d683836101ed60201b60201c565b6101b05760015f5f8581526020019081526020015f205f015f8473ffffffffffffffffffffffffffffffffffffffff1673ffffffffffffffffffffffffffffffffffffffff1681526020019081526020015f205f6101000a81548160ff02191690831515021790555061014d61025060201b60201c565b73ffffffffffffffffffffffffffffffffffffffff168273ffffffffffffffffffffffffffffffffffffffff16847f2f8788117e7eff1d82e926ec794901d17c78024a50270940304540a733656f0d60405160405180910390a4600190506101b4565b5f90505b92915050565b5f6101e5835f018373ffffffffffffffffffffffffffffffffffffffff165f1b61025760201b60201c565b905092915050565b5f5f5f8481526020019081526020015f205f015f8373ffffffffffffffffffffffffffffffffffffffff1673ffffffffffffffffffffffffffffffffffffffff1681526020019081526020015f205f9054906101000a900460ff16905092915050565b5f33905090565b5f61026883836102c460201b60201c565b6102ba57825f0182908060018154018082558091505060019003905f5260205f20015f9091909190915055825f0180549050836001015f8481526020019081526020015f2081905550600190506102be565b5f90505b92915050565b5f5f836001015f8481526020019081526020015f20541415905092915050565b5f5ffd5b5f73ffffffffffffffffffffffffffffffffffffffff82169050919050565b5f610311826102e8565b9050919050565b61032181610307565b811461032b575f5ffd5b50565b5f8151905061033c81610318565b92915050565b5f5f60408385031215610358576103576102e4565b5b5f6103658582860161032e565b92505060206103768582860161032e565b9150509250929050565b611c438061038d5f395ff3fe608060405234801561000f575f5ffd5b5060043610610135575f3560e01c8063853b5d19116100b6578063c5df91b51161007a578063c5df91b51461036b578063ca0d535814610387578063ca15c873146103a3578063d547741f146103d3578063e58378bb146103ef578063f2fde38b1461040d57610135565b8063853b5d19146102b55780639010d07c146102d157806391d1485414610301578063a217fddf14610331578063ada8f9191461034f57610135565b80632f2ff15d116100fd5780632f2ff15d1461021557806336568abe14610231578063755e936f1461024d57806381e4c9a31461026957806384cf84e11461029957610135565b806301ffc9a7146101395780631af6c43114610169578063248a9ca3146101995780632505a3bd146101c95780632ad82eea146101f9575b5f5ffd5b610153600480360381019061014e91906113a4565b610429565b60405161016091906113e9565b60405180910390f35b610183600480360381019061017e9190611435565b6104a2565b60405161019091906113e9565b60405180910390f35b6101b360048036038101906101ae9190611435565b6104c8565b6040516101c0919061146f565b60405180910390f35b6101e360048036038101906101de91906115c4565b6104e4565b6040516101f091906113e9565b60405180910390f35b610213600480360381019061020e91906115c4565b610511565b005b61022f600480360381019061022a9190611665565b610620565b005b61024b60048036038101906102469190611665565b610642565b005b61026760048036038101906102629190611741565b6106bd565b005b610283600480360381019061027e9190611741565b6107ca565b60405161029091906113e9565b60405180910390f35b6102b360048036038101906102ae9190611435565b6107f7565b005b6102cf60048036038101906102ca9190611741565b6108ce565b005b6102eb60048036038101906102e691906117bb565b6109dd565b6040516102f89190611808565b60405180910390f35b61031b60048036038101906103169190611665565b610a09565b60405161032891906113e9565b60405180910390f35b610339610a6c565b604051610346919061146f565b60405180910390f35b61036960048036038101906103649190611821565b610a72565b005b61038560048036038101906103809190611435565b610a8d565b005b6103a1600480360381019061039c91906115c4565b610b62565b005b6103bd60048036038101906103b89190611435565b610c6f565b6040516103ca919061185b565b60405180910390f35b6103ed60048036038101906103e89190611665565b610c90565b005b6103f7610cb2565b604051610404919061146f565b60405180910390f35b61042760048036038101906104229190611821565b610cd6565b005b5f7f5a05180f000000000000000000000000000000000000000000000000000000007bffffffffffffffffffffffffffffffffffffffffffffffffffffffff1916827bffffffffffffffffffffffffffffffffffffffffffffffffffffffff1916148061049b575061049a82610d5b565b5b9050919050565b5f60035f8381526020019081526020015f205f9054906101000a900460ff169050919050565b5f5f5f8381526020019081526020015f20600101549050919050565b5f60045f838051906020012081526020019081526020015f205f9054906101000a900460ff169050919050565b7fb19546dff01e856fb3f010c267a7b1c60363cf8a4664e21cc89c26224620214e61053b81610dd4565b5f8280519060200120905060045f8281526020019081526020015f205f9054906101000a900460ff16156105a4576040517f08c379a000000000000000000000000000000000000000000000000000000000815260040161059b906118ce565b60405180910390fd5b600160045f8381526020019081526020015f205f6101000a81548160ff0219169083151502179055503373ffffffffffffffffffffffffffffffffffffffff167fcbfa55581c230aeb174d969838d927cdd297755dfb967a33134312f1377ee71d84604051610613919061193c565b60405180910390a2505050565b610629826104c8565b61063281610dd4565b61063c8383610de8565b50505050565b61064a610e2b565b73ffffffffffffffffffffffffffffffffffffffff168173ffffffffffffffffffffffffffffffffffffffff16146106ae576040517f6697b23200000000000000000000000000000000000000000000000000000000815260040160405180910390fd5b6106b88282610e32565b505050565b7fb19546dff01e856fb3f010c267a7b1c60363cf8a4664e21cc89c26224620214e6106e781610dd4565b5f8280519060200120905060025f8281526020019081526020015f205f9054906101000a900460ff1661074f576040517f08c379a0000000000000000000000000000000000000000000000000000000008152600401610746906119a6565b60405180910390fd5b5f60025f8381526020019081526020015f205f6101000a81548160ff0219169083151502179055503373ffffffffffffffffffffffffffffffffffffffff167f66e43f8252a3257fe010a4fd6ae50f57624762cc64a6eceadb04b18cfdefac7d846040516107bd9190611a16565b60405180910390a2505050565b5f60025f838051906020012081526020019081526020015f205f9054906101000a900460ff169050919050565b7fb19546dff01e856fb3f010c267a7b1c60363cf8a4664e21cc89c26224620214e61082181610dd4565b61082a826104a2565b1561086a576040517f08c379a000000000000000000000000000000000000000000000000000000000815260040161086190611a80565b60405180910390fd5b600160035f8481526020019081526020015f205f6101000a81548160ff0219169083151502179055507f010120d82c0c66b257c0ea628d405b1d3c2d37bb8dd9141f6c5c12cb0375c572826040516108c2919061146f565b60405180910390a15050565b7fb19546dff01e856fb3f010c267a7b1c60363cf8a4664e21cc89c26224620214e6108f881610dd4565b5f8280519060200120905060025f8281526020019081526020015f205f9054906101000a900460ff1615610961576040517f08c379a0000000000000000000000000000000000000000000000000000000008152600401610958906118ce565b60405180910390fd5b600160025f8381526020019081526020015f205f6101000a81548160ff0219169083151502179055503373ffffffffffffffffffffffffffffffffffffffff167f0a249d4766726d36cb6d6ac22cf998dc9fc02bb4ff9fda73ec1e3061c8a1db09846040516109d09190611a16565b60405180910390a2505050565b5f610a018260015f8681526020019081526020015f20610e7590919063ffffffff16565b905092915050565b5f5f5f8481526020019081526020015f205f015f8373ffffffffffffffffffffffffffffffffffffffff1673ffffffffffffffffffffffffffffffffffffffff1681526020019081526020015f205f9054906101000a900460ff16905092915050565b5f5f1b81565b610a7e5f5f1b82610620565b610a8a5f5f1b33610642565b50565b7fb19546dff01e856fb3f010c267a7b1c60363cf8a4664e21cc89c26224620214e610ab781610dd4565b610ac0826104a2565b610aff576040517f08c379a0000000000000000000000000000000000000000000000000000000008152600401610af690611b0e565b60405180910390fd5b5f60035f8481526020019081526020015f205f6101000a81548160ff0219169083151502179055507f4072861add20da436ef0a8274b90d102aea17b603f972cc8196d51f1a5d5617982604051610b56919061146f565b60405180910390a15050565b7fb19546dff01e856fb3f010c267a7b1c60363cf8a4664e21cc89c26224620214e610b8c81610dd4565b5f8280519060200120905060045f8281526020019081526020015f205f9054906101000a900460ff16610bf4576040517f08c379a0000000000000000000000000000000000000000000000000000000008152600401610beb906119a6565b60405180910390fd5b5f60045f8381526020019081526020015f205f6101000a81548160ff0219169083151502179055503373ffffffffffffffffffffffffffffffffffffffff167f69c40cdda8ad6e074bf320a4a76804a6652eb5231bda91b690dcb98010b2707984604051610c62919061193c565b60405180910390a2505050565b5f610c8960015f8481526020019081526020015f20610e8c565b9050919050565b610c99826104c8565b610ca281610dd4565b610cac8383610e32565b50505050565b7fb19546dff01e856fb3f010c267a7b1c60363cf8a4664e21cc89c26224620214e81565b5f610d017fb19546dff01e856fb3f010c267a7b1c60363cf8a4664e21cc89c26224620214e5f6109dd565b9050610d2d7fb19546dff01e856fb3f010c267a7b1c60363cf8a4664e21cc89c26224620214e82610c90565b610d577fb19546dff01e856fb3f010c267a7b1c60363cf8a4664e21cc89c26224620214e83610620565b5050565b5f7f7965db0b000000000000000000000000000000000000000000000000000000007bffffffffffffffffffffffffffffffffffffffffffffffffffffffff1916827bffffffffffffffffffffffffffffffffffffffffffffffffffffffff19161480610dcd5750610dcc82610e9f565b5b9050919050565b610de581610de0610e2b565b610f08565b50565b5f5f610df48484610f59565b90508015610e2157610e1f8360015f8781526020019081526020015f2061104290919063ffffffff16565b505b8091505092915050565b5f33905090565b5f5f610e3e848461106f565b90508015610e6b57610e698360015f8781526020019081526020015f2061115890919063ffffffff16565b505b8091505092915050565b5f610e82835f0183611185565b5f1c905092915050565b5f610e98825f016111ac565b9050919050565b5f7f01ffc9a7000000000000000000000000000000000000000000000000000000007bffffffffffffffffffffffffffffffffffffffffffffffffffffffff1916827bffffffffffffffffffffffffffffffffffffffffffffffffffffffff1916149050919050565b610f128282610a09565b610f555780826040517fe2517d3f000000000000000000000000000000000000000000000000000000008152600401610f4c929190611b2c565b60405180910390fd5b5050565b5f610f648383610a09565b6110385760015f5f8581526020019081526020015f205f015f8473ffffffffffffffffffffffffffffffffffffffff1673ffffffffffffffffffffffffffffffffffffffff1681526020019081526020015f205f6101000a81548160ff021916908315150217905550610fd5610e2b565b73ffffffffffffffffffffffffffffffffffffffff168273ffffffffffffffffffffffffffffffffffffffff16847f2f8788117e7eff1d82e926ec794901d17c78024a50270940304540a733656f0d60405160405180910390a46001905061103c565b5f90505b92915050565b5f611067835f018373ffffffffffffffffffffffffffffffffffffffff165f1b6111bb565b905092915050565b5f61107a8383610a09565b1561114e575f5f5f8581526020019081526020015f205f015f8473ffffffffffffffffffffffffffffffffffffffff1673ffffffffffffffffffffffffffffffffffffffff1681526020019081526020015f205f6101000a81548160ff0219169083151502179055506110eb610e2b565b73ffffffffffffffffffffffffffffffffffffffff168273ffffffffffffffffffffffffffffffffffffffff16847ff6391f5c32d9c69d2a47ea670b442974b53935d1edc7fd64eb21e047a839171b60405160405180910390a460019050611152565b5f90505b92915050565b5f61117d835f018373ffffffffffffffffffffffffffffffffffffffff165f1b611222565b905092915050565b5f825f01828154811061119b5761119a611b53565b5b905f5260205f200154905092915050565b5f815f01805490509050919050565b5f6111c6838361131e565b61121857825f0182908060018154018082558091505060019003905f5260205f20015f9091909190915055825f0180549050836001015f8481526020019081526020015f20819055506001905061121c565b5f90505b92915050565b5f5f836001015f8481526020019081526020015f205490505f8114611313575f60018261124f9190611bad565b90505f6001865f01805490506112659190611bad565b90508082146112cb575f865f01828154811061128457611283611b53565b5b905f5260205f200154905080875f0184815481106112a5576112a4611b53565b5b905f5260205f20018190555083876001015f8381526020019081526020015f2081905550505b855f018054806112de576112dd611be0565b5b600190038181905f5260205f20015f90559055856001015f8681526020019081526020015f205f905560019350505050611318565b5f9150505b92915050565b5f5f836001015f8481526020019081526020015f20541415905092915050565b5f604051905090565b5f5ffd5b5f5ffd5b5f7fffffffff0000000000000000000000000000000000000000000000000000000082169050919050565b6113838161134f565b811461138d575f5ffd5b50565b5f8135905061139e8161137a565b92915050565b5f602082840312156113b9576113b8611347565b5b5f6113c684828501611390565b91505092915050565b5f8115159050919050565b6113e3816113cf565b82525050565b5f6020820190506113fc5f8301846113da565b92915050565b5f819050919050565b61141481611402565b811461141e575f5ffd5b50565b5f8135905061142f8161140b565b92915050565b5f6020828403121561144a57611449611347565b5b5f61145784828501611421565b91505092915050565b61146981611402565b82525050565b5f6020820190506114825f830184611460565b92915050565b5f5ffd5b5f5ffd5b5f601f19601f8301169050919050565b7f4e487b71000000000000000000000000000000000000000000000000000000005f52604160045260245ffd5b6114d682611490565b810181811067ffffffffffffffff821117156114f5576114f46114a0565b5b80604052505050565b5f61150761133e565b905061151382826114cd565b919050565b5f67ffffffffffffffff821115611532576115316114a0565b5b61153b82611490565b9050602081019050919050565b828183375f83830152505050565b5f61156861156384611518565b6114fe565b9050828152602081018484840111156115845761158361148c565b5b61158f848285611548565b509392505050565b5f82601f8301126115ab576115aa611488565b5b81356115bb848260208601611556565b91505092915050565b5f602082840312156115d9576115d8611347565b5b5f82013567ffffffffffffffff8111156115f6576115f561134b565b5b61160284828501611597565b91505092915050565b5f73ffffffffffffffffffffffffffffffffffffffff82169050919050565b5f6116348261160b565b9050919050565b6116448161162a565b811461164e575f5ffd5b50565b5f8135905061165f8161163b565b92915050565b5f5f6040838503121561167b5761167a611347565b5b5f61168885828601611421565b925050602061169985828601611651565b9150509250929050565b5f67ffffffffffffffff8211156116bd576116bc6114a0565b5b6116c682611490565b9050602081019050919050565b5f6116e56116e0846116a3565b6114fe565b9050828152602081018484840111156117015761170061148c565b5b61170c848285611548565b509392505050565b5f82601f83011261172857611727611488565b5b81356117388482602086016116d3565b91505092915050565b5f6020828403121561175657611755611347565b5b5f82013567ffffffffffffffff8111156117735761177261134b565b5b61177f84828501611714565b91505092915050565b5f819050919050565b61179a81611788565b81146117a4575f5ffd5b50565b5f813590506117b581611791565b92915050565b5f5f604083850312156117d1576117d0611347565b5b5f6117de85828601611421565b92505060206117ef858286016117a7565b9150509250929050565b6118028161162a565b82525050565b5f60208201905061181b5f8301846117f9565b92915050565b5f6020828403121561183657611835611347565b5b5f61184384828501611651565b91505092915050565b61185581611788565b82525050565b5f60208201905061186e5f83018461184c565b92915050565b5f82825260208201905092915050565b7f4b657920697320616c72656164792076616c69640000000000000000000000005f82015250565b5f6118b8601483611874565b91506118c382611884565b602082019050919050565b5f6020820190508181035f8301526118e5816118ac565b9050919050565b5f81519050919050565b8281835e5f83830152505050565b5f61190e826118ec565b6119188185611874565b93506119288185602086016118f6565b61193181611490565b840191505092915050565b5f6020820190508181035f8301526119548184611904565b905092915050565b7f43616e6e6f74207265766f6b6520696e76616c6964206b6579000000000000005f82015250565b5f611990601983611874565b915061199b8261195c565b602082019050919050565b5f6020820190508181035f8301526119bd81611984565b9050919050565b5f81519050919050565b5f82825260208201905092915050565b5f6119e8826119c4565b6119f281856119ce565b9350611a028185602086016118f6565b611a0b81611490565b840191505092915050565b5f6020820190508181035f830152611a2e81846119de565b905092915050565b7f496d616765494420697320616c726561647920737570706f72746564000000005f82015250565b5f611a6a601c83611874565b9150611a7582611a36565b602082019050919050565b5f6020820190508181035f830152611a9781611a5e565b9050919050565b7f43616e6e6f74207265766f6b6520756e737570706f7274656420496d616765495f8201527f4400000000000000000000000000000000000000000000000000000000000000602082015250565b5f611af8602183611874565b9150611b0382611a9e565b604082019050919050565b5f6020820190508181035f830152611b2581611aec565b9050919050565b5f604082019050611b3f5f8301856117f9565b611b4c6020830184611460565b9392505050565b7f4e487b71000000000000000000000000000000000000000000000000000000005f52603260045260245ffd5b7f4e487b71000000000000000000000000000000000000000000000000000000005f52601160045260245ffd5b5f611bb782611788565b9150611bc283611788565b9250828203905081811115611bda57611bd9611b80565b5b92915050565b7f4e487b71000000000000000000000000000000000000000000000000000000005f52603160045260245ffdfea2646970667358221220406b6dee7ac298077e92c9b5400208362b655955c9235ca32f2620108a91164164736f6c634300081d003360e060405234801561000f575f5ffd5b506040516126b83803806126b883398181016040528101906100319190610239565b808073ffffffffffffffffffffffffffffffffffffffff1660c08173ffffffffffffffffffffffffffffffffffffffff16815250505061007561014960201b60201c565b156100ac576040517f7a47c9a200000000000000000000000000000000000000000000000000000000815260040160405180910390fd5b63deafbeef60e01b6040516100c0906101bd565b6100ca919061029e565b604051809103905ff0801580156100e3573d5f5f3e3d5ffd5b5073ffffffffffffffffffffffffffffffffffffffff1660a08173ffffffffffffffffffffffffffffffffffffffff168152505060018081111561012a576101296102b7565b5b608081600181111561013f5761013e6102b7565b5b81525050506102e4565b5f60014614806101595750600a46145b806101645750608946145b80610170575061014446145b8061017c57506101e046145b8061018857506102eb46145b80610194575061210546145b806101a0575061a4b146145b806101ac575061a4ba46145b806101b8575061e70846145b905090565b610ffb806116bd83390190565b5f5ffd5b5f73ffffffffffffffffffffffffffffffffffffffff82169050919050565b5f6101f7826101ce565b9050919050565b5f610208826101ed565b9050919050565b610218816101fe565b8114610222575f5ffd5b50565b5f815190506102338161020f565b92915050565b5f6020828403121561024e5761024d6101ca565b5b5f61025b84828501610225565b91505092915050565b5f7fffffffff0000000000000000000000000000000000000000000000000000000082169050919050565b61029881610264565b82525050565b5f6020820190506102b15f83018461028f565b92915050565b7f4e487b71000000000000000000000000000000000000000000000000000000005f52602160045260245ffd5b60805160a05160c0516113946103295f395f818161011401528181610240015261053401525f818160ef015261019201525f818161013a015261026401526113945ff3fe608060405234801561000f575f5ffd5b5060043610610055575f3560e01c806308c84e70146100595780633fd66f22146100775780639a44ea8414610095578063c4fa74e5146100b3578063f4cbae94146100cf575b5f5ffd5b6100616100ed565b60405161006e9190610747565b60405180910390f35b61007f610111565b60405161008c9190610780565b60405180910390f35b61009d610138565b6040516100aa919061080c565b60405180910390f35b6100cd60048036038101906100c89190610918565b61015c565b005b6100d761023e565b6040516100e49190610780565b60405180910390f35b7f000000000000000000000000000000000000000000000000000000000000000081565b5f7f0000000000000000000000000000000000000000000000000000000000000000905090565b7f000000000000000000000000000000000000000000000000000000000000000081565b610175848036038101906101709190610c7d565b610262565b610190848036038101906101899190610c7d565b83836102f6565b7f000000000000000000000000000000000000000000000000000000000000000073ffffffffffffffffffffffffffffffffffffffff1663ab750e756101e7865f018036038101906101e29190610ca9565b610612565b866101400135866040518463ffffffff1660e01b815260040161020c93929190610d44565b5f6040518083038186803b158015610222575f5ffd5b505afa158015610234573d5f5f3e3d5ffd5b5050505050505050565b7f000000000000000000000000000000000000000000000000000000000000000081565b7f0000000000000000000000000000000000000000000000000000000000000000600181111561029557610294610799565b5b6102a1825f01516106c0565b60018111156102b3576102b2610799565b5b146102f3576040517f08c379a00000000000000000000000000000000000000000000000000000000081526004016102ea90610dda565b60405180910390fd5b50565b8173ffffffffffffffffffffffffffffffffffffffff1683606001515f015173ffffffffffffffffffffffffffffffffffffffff161461036b576040517f08c379a000000000000000000000000000000000000000000000000000000000815260040161036290610e42565b60405180910390fd5b807bffffffffffffffffffffffffffffffffffffffffffffffffffffffff19168360600151602001517bffffffffffffffffffffffffffffffffffffffffffffffffffffffff1916146103f3576040517f08c379a00000000000000000000000000000000000000000000000000000000081526004016103ea90610eaa565b60405180910390fd5b468360600151604001511461043d576040517f08c379a000000000000000000000000000000000000000000000000000000000815260040161043490610f12565b60405180910390fd5b4383606001516060015110610487576040517f08c379a000000000000000000000000000000000000000000000000000000000815260040161047e90610fa0565b60405180910390fd5b4361010084606001516060015161049e9190610feb565b10156104df576040517f08c379a00000000000000000000000000000000000000000000000000000000081526004016104d69061108e565b60405180910390fd5b8260600151606001514083606001516080015114610532576040517f08c379a0000000000000000000000000000000000000000000000000000000008152600401610529906110f6565b60405180910390fd5b7f000000000000000000000000000000000000000000000000000000000000000073ffffffffffffffffffffffffffffffffffffffff16631af6c43184602001516040518263ffffffff1660e01b815260040161058f9190611114565b602060405180830381865afa1580156105aa573d5f5f3e3d5ffd5b505050506040513d601f19601f820116820180604052508101906105ce9190611162565b61060d576040517f08c379a0000000000000000000000000000000000000000000000000000000008152600401610604906111d7565b60405180910390fd5b505050565b606060018081111561062757610626610799565b5b8260400151600181111561063e5761063d610799565b5b0361068f575f82602001515f6008811061065b5761065a6111f5565b5b60200201519050825f015181604051602001610678929190611262565b6040516020818303038152906040529150506106bb565b815f015182602001516040516020016106a9929190611332565b60405160208183030381529060405290505b919050565b5f81604001519050919050565b5f73ffffffffffffffffffffffffffffffffffffffff82169050919050565b5f819050919050565b5f61070f61070a610705846106cd565b6106ec565b6106cd565b9050919050565b5f610720826106f5565b9050919050565b5f61073182610716565b9050919050565b61074181610727565b82525050565b5f60208201905061075a5f830184610738565b92915050565b5f61076a82610716565b9050919050565b61077a81610760565b82525050565b5f6020820190506107935f830184610771565b92915050565b7f4e487b71000000000000000000000000000000000000000000000000000000005f52602160045260245ffd5b600281106107d7576107d6610799565b5b50565b5f8190506107e7826107c6565b919050565b5f6107f6826107da565b9050919050565b610806816107ec565b82525050565b5f60208201905061081f5f8301846107fd565b92915050565b5f604051905090565b5f5ffd5b5f5ffd5b5f610220828403121561084c5761084b610832565b5b81905092915050565b5f819050919050565b61086781610855565b8114610871575f5ffd5b50565b5f813590506108828161085e565b92915050565b5f610892826106cd565b9050919050565b6108a281610888565b81146108ac575f5ffd5b50565b5f813590506108bd81610899565b92915050565b5f7fffffffff0000000000000000000000000000000000000000000000000000000082169050919050565b6108f7816108c3565b8114610901575f5ffd5b50565b5f81359050610912816108ee565b92915050565b5f5f5f5f61028085870312156109315761093061082e565b5b5f61093e87828801610836565b94505061022061095087828801610874565b935050610240610962878288016108af565b92505061026061097487828801610904565b91505092959194509250565b5f5ffd5b5f601f19601f8301169050919050565b7f4e487b71000000000000000000000000000000000000000000000000000000005f52604160045260245ffd5b6109ca82610984565b810181811067ffffffffffffffff821117156109e9576109e8610994565b5b80604052505050565b5f6109fb610825565b9050610a0782826109c1565b919050565b5f5ffd5b5f67ffffffffffffffff821115610a2a57610a29610994565b5b602082029050919050565b5f5ffd5b5f610a4b610a4684610a10565b6109f2565b90508060208402830185811115610a6557610a64610a35565b5b835b81811015610a8e5780610a7a8882610874565b845260208401935050602081019050610a67565b5050509392505050565b5f82601f830112610aac57610aab610a0c565b5b6008610ab9848285610a39565b91505092915050565b60028110610ace575f5ffd5b50565b5f81359050610adf81610ac2565b92915050565b5f6101408284031215610afb57610afa610980565b5b610b0560606109f2565b90505f610b1484828501610904565b5f830152506020610b2784828501610a98565b602083015250610120610b3c84828501610ad1565b60408301525092915050565b5f819050919050565b610b5a81610b48565b8114610b64575f5ffd5b50565b5f81359050610b7581610b51565b92915050565b5f60a08284031215610b9057610b8f610980565b5b610b9a60a06109f2565b90505f610ba9848285016108af565b5f830152506020610bbc84828501610904565b6020830152506040610bd084828501610b67565b6040830152506060610be484828501610b67565b6060830152506080610bf884828501610874565b60808301525092915050565b5f6102208284031215610c1a57610c19610980565b5b610c2460806109f2565b90505f610c3384828501610ae5565b5f83015250610140610c4784828501610874565b602083015250610160610c5c84828501610b67565b604083015250610180610c7184828501610b7b565b60608301525092915050565b5f6102208284031215610c9357610c9261082e565b5b5f610ca084828501610c04565b91505092915050565b5f6101408284031215610cbf57610cbe61082e565b5b5f610ccc84828501610ae5565b91505092915050565b5f81519050919050565b5f82825260208201905092915050565b8281835e5f83830152505050565b5f610d0782610cd5565b610d118185610cdf565b9350610d21818560208601610cef565b610d2a81610984565b840191505092915050565b610d3e81610855565b82525050565b5f6060820190508181035f830152610d5c8186610cfd565b9050610d6b6020830185610d35565b610d786040830184610d35565b949350505050565b5f82825260208201905092915050565b7f496e76616c69642070726f6f66206d6f646500000000000000000000000000005f82015250565b5f610dc4601283610d80565b9150610dcf82610d90565b602082019050919050565b5f6020820190508181035f830152610df181610db8565b9050919050565b7f496e76616c69642070726f7665720000000000000000000000000000000000005f82015250565b5f610e2c600e83610d80565b9150610e3782610df8565b602082019050919050565b5f6020820190508181035f830152610e5981610e20565b9050919050565b7f496e76616c69642073656c6563746f72000000000000000000000000000000005f82015250565b5f610e94601083610d80565b9150610e9f82610e60565b602082019050919050565b5f6020820190508181035f830152610ec181610e88565b9050919050565b7f496e76616c696420636861696e206964000000000000000000000000000000005f82015250565b5f610efc601083610d80565b9150610f0782610ec8565b602082019050919050565b5f6020820190508181035f830152610f2981610ef0565b9050919050565b7f496e76616c696420626c6f636b206e756d6265723a20626c6f636b2066726f6d5f8201527f2066757475726500000000000000000000000000000000000000000000000000602082015250565b5f610f8a602783610d80565b9150610f9582610f30565b604082019050919050565b5f6020820190508181035f830152610fb781610f7e565b9050919050565b7f4e487b71000000000000000000000000000000000000000000000000000000005f52601160045260245ffd5b5f610ff582610b48565b915061100083610b48565b925082820190508082111561101857611017610fbe565b5b92915050565b7f496e76616c696420626c6f636b206e756d6265723a20626c6f636b20746f6f205f8201527f6f6c640000000000000000000000000000000000000000000000000000000000602082015250565b5f611078602383610d80565b91506110838261101e565b604082019050919050565b5f6020820190508181035f8301526110a58161106c565b9050919050565b7f496e76616c696420626c6f636b206861736800000000000000000000000000005f82015250565b5f6110e0601283610d80565b91506110eb826110ac565b602082019050919050565b5f6020820190508181035f83015261110d816110d4565b9050919050565b5f6020820190506111275f830184610d35565b92915050565b5f8115159050919050565b6111418161112d565b811461114b575f5ffd5b50565b5f8151905061115c81611138565b92915050565b5f602082840312156111775761117661082e565b5b5f6111848482850161114e565b91505092915050565b7f556e737570706f727465642043616c6c477565737449640000000000000000005f82015250565b5f6111c1601783610d80565b91506111cc8261118d565b602082019050919050565b5f6020820190508181035f8301526111ee816111b5565b9050919050565b7f4e487b71000000000000000000000000000000000000000000000000000000005f52603260045260245ffd5b5f819050919050565b61123c611237826108c3565b611222565b82525050565b5f819050919050565b61125c61125782610855565b611242565b82525050565b5f61126d828561122b565b60048201915061127d828461124b565b6020820191508190509392505050565b5f60089050919050565b5f81905092915050565b5f819050919050565b6112b381610855565b82525050565b5f6112c483836112aa565b60208301905092915050565b5f602082019050919050565b6112e58161128d565b6112ef8184611297565b92506112fa826112a1565b805f5b8381101561132a57815161131187826112b9565b965061131c836112d0565b9250506001810190506112fd565b505050505050565b5f61133d828561122b565b60048201915061134d82846112dc565b61010082019150819050939250505056fea2646970667358221220626e05900b1b5a9bfafc4074ffc9cb057338896628bb7bc5e39886ded582ae2764736f6c634300081d003360a060405234801561000f575f5ffd5b50604051610ffb380380610ffb833981810160405281019061003191906100d6565b807bffffffffffffffffffffffffffffffffffffffffffffffffffffffff19166080817bffffffffffffffffffffffffffffffffffffffffffffffffffffffff19168152505050610101565b5f5ffd5b5f7fffffffff0000000000000000000000000000000000000000000000000000000082169050919050565b6100b581610081565b81146100bf575f5ffd5b50565b5f815190506100d0816100ac565b92915050565b5f602082840312156100eb576100ea61007d565b5b5f6100f8848285016100c2565b91505092915050565b608051610ecd61012e5f395f8181610111015281816101670152818161024201526102a50152610ecd5ff3fe608060405234801561000f575f5ffd5b5060043610610055575f3560e01c8063053c238d146100595780631599ead5146100775780633a115bb11461009357806366cf0e4b146100c3578063ab750e75146100f3575b5f5ffd5b61006161010f565b60405161006e91906106d2565b60405180910390f35b610091600480360381019061008c9190610715565b610133565b005b6100ad60048036038101906100a8919061078f565b610152565b6040516100ba9190610873565b60405180910390f35b6100dd60048036038101906100d89190610893565b6101b7565b6040516100ea9190610873565b60405180910390f35b61010d60048036038101906101089190610932565b6101e1565b005b7f000000000000000000000000000000000000000000000000000000000000000081565b61014f81805f019061014591906109af565b8360200135610203565b50565b61015a610621565b60405180604001604052807f000000000000000000000000000000000000000000000000000000000000000084604051602001610198929190610a51565b6040516020818303038152906040528152602001838152509050919050565b6101bf610621565b6101d96101d46101cf858561038d565b61042f565b610152565b905092915050565b6101fd84846101f86101f3868661038d565b61042f565b610203565b50505050565b82825f9060049261021693929190610a84565b906102219190610ad4565b7bffffffffffffffffffffffffffffffffffffffffffffffffffffffff19167f00000000000000000000000000000000000000000000000000000000000000007bffffffffffffffffffffffffffffffffffffffffffffffffffffffff1916146103015782825f9060049261029893929190610a84565b906102a39190610ad4565b7f00000000000000000000000000000000000000000000000000000000000000006040517fb8b38d4c0000000000000000000000000000000000000000000000000000000081526004016102f8929190610b32565b60405180910390fd5b806040516020016103129190610b59565b604051602081830303815290604052805190602001208383600490809261033b93929190610a84565b604051610349929190610baf565b604051809103902014610388576040517f439cc0cd00000000000000000000000000000000000000000000000000000000815260040160405180910390fd5b505050565b61039561063a565b6040518060a001604052808481526020017fa3acc27117418996340b84e5a90f3ef4c49d22c79e44aad822ec9c313e1eb8e25f1b815260200160405180604001604052805f60028111156103ec576103eb610bc7565b5b81526020015f60ff1681525081526020015f5f1b815260200161042460405180604001604052808681526020015f5f1b81525061054c565b815250905092915050565b5f60028060405161043f90610c3e565b602060405180830381855afa15801561045a573d5f5f3e3d5ffd5b5050506040513d601f19601f8201168201806040525081019061047d9190610c66565b8360600151845f015185602001518660800151601888604001515f015160028111156104ac576104ab610bc7565b5b63ffffffff16901b601889604001516020015160ff1663ffffffff16901b6008600461ffff16901b6040516020016104eb989796959493929190610d15565b6040516020818303038152906040526040516105079190610dd6565b602060405180830381855afa158015610522573d5f5f3e3d5ffd5b5050506040513d601f19601f820116820180604052508101906105459190610c66565b9050919050565b5f60028060405161055c90610e36565b602060405180830381855afa158015610577573d5f5f3e3d5ffd5b5050506040513d601f19601f8201168201806040525081019061059a9190610c66565b835f015184602001516008600261ffff16901b6040516020016105c09493929190610e4a565b6040516020818303038152906040526040516105dc9190610dd6565b602060405180830381855afa1580156105f7573d5f5f3e3d5ffd5b5050506040513d601f19601f8201168201806040525081019061061a9190610c66565b9050919050565b6040518060400160405280606081526020015f81525090565b6040518060a001604052805f81526020015f815260200161065961066b565b81526020015f81526020015f81525090565b60405180604001604052805f600281111561068957610688610bc7565b5b81526020015f60ff1681525090565b5f7fffffffff0000000000000000000000000000000000000000000000000000000082169050919050565b6106cc81610698565b82525050565b5f6020820190506106e55f8301846106c3565b92915050565b5f5ffd5b5f5ffd5b5f5ffd5b5f6040828403121561070c5761070b6106f3565b5b81905092915050565b5f6020828403121561072a576107296106eb565b5b5f82013567ffffffffffffffff811115610747576107466106ef565b5b610753848285016106f7565b91505092915050565b5f819050919050565b61076e8161075c565b8114610778575f5ffd5b50565b5f8135905061078981610765565b92915050565b5f602082840312156107a4576107a36106eb565b5b5f6107b18482850161077b565b91505092915050565b5f81519050919050565b5f82825260208201905092915050565b8281835e5f83830152505050565b5f601f19601f8301169050919050565b5f6107fc826107ba565b61080681856107c4565b93506108168185602086016107d4565b61081f816107e2565b840191505092915050565b6108338161075c565b82525050565b5f604083015f8301518482035f86015261085382826107f2565b9150506020830151610868602086018261082a565b508091505092915050565b5f6020820190508181035f83015261088b8184610839565b905092915050565b5f5f604083850312156108a9576108a86106eb565b5b5f6108b68582860161077b565b92505060206108c78582860161077b565b9150509250929050565b5f5ffd5b5f5ffd5b5f5ffd5b5f5f83601f8401126108f2576108f16108d1565b5b8235905067ffffffffffffffff81111561090f5761090e6108d5565b5b60208301915083600182028301111561092b5761092a6108d9565b5b9250929050565b5f5f5f5f6060858703121561094a576109496106eb565b5b5f85013567ffffffffffffffff811115610967576109666106ef565b5b610973878288016108dd565b945094505060206109868782880161077b565b92505060406109978782880161077b565b91505092959194509250565b5f5ffd5b5f5ffd5b5f5ffd5b5f5f833560016020038436030381126109cb576109ca6109a3565b5b80840192508235915067ffffffffffffffff8211156109ed576109ec6109a7565b5b602083019250600182023603831315610a0957610a086109ab565b5b509250929050565b5f819050919050565b610a2b610a2682610698565b610a11565b82525050565b5f819050919050565b610a4b610a468261075c565b610a31565b82525050565b5f610a5c8285610a1a565b600482019150610a6c8284610a3a565b6020820191508190509392505050565b5f5ffd5b5f5ffd5b5f5f85851115610a9757610a96610a7c565b5b83861115610aa857610aa7610a80565b5b6001850283019150848603905094509492505050565b5f82905092915050565b5f82821b905092915050565b5f610adf8383610abe565b82610aea8135610698565b92506004821015610b2a57610b257fffffffff0000000000000000000000000000000000000000000000000000000083600403600802610ac8565b831692505b505092915050565b5f604082019050610b455f8301856106c3565b610b5260208301846106c3565b9392505050565b5f610b648284610a3a565b60208201915081905092915050565b5f81905092915050565b828183375f83830152505050565b5f610b968385610b73565b9350610ba3838584610b7d565b82840190509392505050565b5f610bbb828486610b8b565b91508190509392505050565b7f4e487b71000000000000000000000000000000000000000000000000000000005f52602160045260245ffd5b7f72697363302e52656365697074436c61696d00000000000000000000000000005f82015250565b5f610c28601283610b73565b9150610c3382610bf4565b601282019050919050565b5f610c4882610c1c565b9150819050919050565b5f81519050610c6081610765565b92915050565b5f60208284031215610c7b57610c7a6106eb565b5b5f610c8884828501610c52565b91505092915050565b5f63ffffffff82169050919050565b5f8160e01b9050919050565b5f610cb682610ca0565b9050919050565b610cce610cc982610c91565b610cac565b82525050565b5f61ffff82169050919050565b5f8160f01b9050919050565b5f610cf782610ce1565b9050919050565b610d0f610d0a82610cd4565b610ced565b82525050565b5f610d20828b610a3a565b602082019150610d30828a610a3a565b602082019150610d408289610a3a565b602082019150610d508288610a3a565b602082019150610d608287610a3a565b602082019150610d708286610cbd565b600482019150610d808285610cbd565b600482019150610d908284610cfe565b6002820191508190509998505050505050505050565b5f610db0826107ba565b610dba8185610b73565b9350610dca8185602086016107d4565b80840191505092915050565b5f610de18284610da6565b915081905092915050565b7f72697363302e4f757470757400000000000000000000000000000000000000005f82015250565b5f610e20600c83610b73565b9150610e2b82610dec565b600c82019050919050565b5f610e4082610e14565b9150819050919050565b5f610e558287610a3a565b602082019150610e658286610a3a565b602082019150610e758285610a3a565b602082019150610e858284610cfe565b6002820191508190509594505050505056fea2646970667358221220e6aa613b720de0215d0254379e5ce80458782ca849e3ff7ebe9e78770ba762f064736f6c634300081d0033","linkReferences":{}},"methodIdentifiers":{"_setTestVerifier(address)":"9b8b30c8","bounties(uint256)":"dc2f8744","cancelBounty(uint256)":"e5e5dff1","claimed(uint256,address)":"120aa877","completeBounty(uint256,((bytes4,bytes32[8],uint8),bytes32,uint256,(address,bytes4,uint256,uint256,bytes32)))":"c15920de","completedBounties(address)":"baf9fbde","createBounty(uint8,string,string,uint256,uint256)":"d0b50709","getBounty(uint256)":"ee8c4bbf","getWorkerStats(address)":"365ba2dd","githubProver()":"b5f5f3e8","nextBountyId()":"fd14fad4","owner()":"8da5cb5b","renounceOwnership()":"715018a6","totalEarnings(address)":"85117005","transferOwnership(address)":"f2fde38b","vault()":"fbfa77cf","verifier()":"2b7ac3f3"},"id":75}