{"abi":[{"type":"function","name":"RISC0_CALL_GUEST_ID","inputs":[],"outputs":[{"name":"","type":"bytes32","internalType":"bytes32"}],"stateMutability":"view"}],"bytecode":{"object":"0x60d961004c600b8282823980515f1a6073146040577f4e487b71000000000000000000000000000000000000000000000000000000005f525f60045260245ffd5b305f52607381538281f3fe73000000000000000000000000000000000000000030146080604052600436106032575f3560e01c8063d7b00be9146036575b5f5ffd5b603c6050565b60405160479190608c565b60405180910390f35b7fb4248e4b5d3298922937afd56d86ac391f3ac2ea06f9764b30e92d377afaf51d5f1b81565b5f819050919050565b6086816076565b82525050565b5f602082019050609d5f830184607f565b9291505056fea2646970667358221220e4210751d10093b13c88be228ae2289a5aea89a036064698db27fe9f87bc207264736f6c634300081d0033","linkReferences":{}},"methodIdentifiers":{"RISC0_CALL_GUEST_ID()":"d7b00be9"},"id":52}