{"abi":[{"type":"constructor","inputs":[{"name":"_paymentToken","type":"address","internalType":"address"},{"name":"_owner","type":"address","internalType":"address"}],"stateMutability":"nonpayable"},{"type":"function","name":"deposit","inputs":[{"name":"bountyId","type":"uint256","internalType":"uint256"},{"name":"amount","type":"uint256","internalType":"uint256"}],"outputs":[],"stateMutability":"nonpayable"},{"type":"function","name":"escrowedAmounts","inputs":[{"name":"","type":"uint256","internalType":"uint256"}],"outputs":[{"name":"","type":"uint256","internalType":"uint256"}],"stateMutability":"view"},{"type":"function","name":"getEscrowedAmount","inputs":[{"name":"bountyId","type":"uint256","internalType":"uint256"}],"outputs":[{"name":"","type":"uint256","internalType":"uint256"}],"stateMutability":"view"},{"type":"function","name":"owner","inputs":[],"outputs":[{"name":"","type":"address","internalType":"address"}],"stateMutability":"view"},{"type":"function","name":"paymentToken","inputs":[],"outputs":[{"name":"","type":"address","internalType":"contract IERC20"}],"stateMutability":"view"},{"type":"function","name":"refund","inputs":[{"name":"bountyId","type":"uint256","internalType":"uint256"},{"name":"depositor","type":"address","internalType":"address"},{"name":"amount","type":"uint256","internalType":"uint256"}],"outputs":[],"stateMutability":"nonpayable"},{"type":"function","name":"release","inputs":[{"name":"bountyId","type":"uint256","internalType":"uint256"},{"name":"recipient","type":"address","internalType":"address"},{"name":"amount","type":"uint256","internalType":"uint256"}],"outputs":[],"stateMutability":"nonpayable"},{"type":"function","name":"renounceOwnership","inputs":[],"outputs":[],"stateMutability":"nonpayable"},{"type":"function","name":"totalEscrowed","inputs":[],"outputs":[{"name":"","type":"uint256","internalType":"uint256"}],"stateMutability":"view"},{"type":"function","name":"transferOwnership","inputs":[{"name":"newOwner","type":"address","internalType":"address"}],"outputs":[],"stateMutability":"nonpayable"},{"type":"event","name":"FundsDeposited","inputs":[{"name":"bountyId","type":"uint256","indexed":true,"internalType":"uint256"},{"name":"depositor","type":"address","indexed":true,"internalType":"address"},{"name":"amount","type":"uint256","indexed":false,"internalType":"uint256"}],"anonymous":false},{"type":"event","name":"FundsRefunded","inputs":[{"name":"bountyId","type":"uint256","indexed":true,"internalType":"uint256"},{"name":"depositor","type":"address","indexed":true,"internalType":"address"},{"name":"amount","type":"uint256","indexed":false,"internalType":"uint256"}],"anonymous":false},{"type":"event","name":"FundsReleased","inputs":[{"name":"bountyId","type":"uint256","indexed":true,"internalType":"uint256"},{"name":"recipient","type":"address","indexed":true,"internalType":"address"},{"name":"amount","type":"uint256","indexed":false,"internalType":"uint256"}],"anonymous":false},{"type":"event","name":"OwnershipTransferred","inputs":[{"name":"previousOwner","type":"address","indexed":true,"internalType":"address"},{"name":"newOwner","type":"address","indexed":true,"internalType":"address"}],"anonymous":false},{"type":"error","name":"AddressEmptyCode","inputs":[{"name":"target","type":"address","internalType":"address"}]},{"type":"error","name":"AddressInsufficientBalance","inputs":[{"name":"account","type":"address","internalType":"address"}]},{"type":"error","name":"FailedInnerCall","inputs":[]},{"type":"error","name":"OwnableInvalidOwner","inputs":[{"name":"owner","type":"address","internalType":"address"}]},{"type":"error","name":"OwnableUnauthorizedAccount","inputs":[{"name":"account","type":"address","internalType":"address"}]},{"type":"error","name":"SafeERC20FailedOperation","inputs":[{"name":"token","type":"address","internalType":"address"}]}],"bytecode":{"object":"0x60a060405234801561000f575f5ffd5b506040516114653803806114658339818101604052810190610031919061020c565b805f73ffffffffffffffffffffffffffffffffffffffff168173ffffffffffffffffffffffffffffffffffffffff16036100a2575f6040517f1e4fbdf70000000000000000000000000000000000000000000000000000000081526004016100999190610259565b60405180910390fd5b6100b1816100ed60201b60201c565b508173ffffffffffffffffffffffffffffffffffffffff1660808173ffffffffffffffffffffffffffffffffffffffff16815250505050610272565b5f5f5f9054906101000a900473ffffffffffffffffffffffffffffffffffffffff169050815f5f6101000a81548173ffffffffffffffffffffffffffffffffffffffff021916908373ffffffffffffffffffffffffffffffffffffffff1602179055508173ffffffffffffffffffffffffffffffffffffffff168173ffffffffffffffffffffffffffffffffffffffff167f8be0079c531659141344cd1fd0a4f28419497f9722a3daafe3b4186f6b6457e060405160405180910390a35050565b5f5ffd5b5f73ffffffffffffffffffffffffffffffffffffffff82169050919050565b5f6101db826101b2565b9050919050565b6101eb816101d1565b81146101f5575f5ffd5b50565b5f81519050610206816101e2565b92915050565b5f5f60408385031215610222576102216101ae565b5b5f61022f858286016101f8565b9250506020610240858286016101f8565b9150509250929050565b610253816101d1565b82525050565b5f60208201905061026c5f83018461024a565b92915050565b6080516111c661029f5f395f81816102e40152818161037e01528181610492015261063a01526111c65ff3fe608060405234801561000f575f5ffd5b506004361061009c575f3560e01c8063e146a3b911610064578063e146a3b914610132578063e2bbb15814610162578063e796a6eb1461017e578063f2fde38b1461019a578063f9168231146101b65761009c565b8063229c9f6c146100a05780633013ce29146100bc578063391e35ca146100da578063715018a61461010a5780638da5cb5b14610114575b5f5ffd5b6100ba60048036038101906100b59190610c81565b6101d4565b005b6100c461037c565b6040516100d19190610d2c565b60405180910390f35b6100f460048036038101906100ef9190610d45565b6103a0565b6040516101019190610d7f565b60405180910390f35b6101126103b5565b005b61011c6103c8565b6040516101299190610da7565b60405180910390f35b61014c60048036038101906101479190610d45565b6103ef565b6040516101599190610d7f565b60405180910390f35b61017c60048036038101906101779190610dc0565b610409565b005b61019860048036038101906101939190610c81565b61052a565b005b6101b460048036038101906101af9190610dfe565b6106d2565b005b6101be610756565b6040516101cb9190610d7f565b60405180910390f35b6101dc61075c565b8060015f8581526020019081526020015f20541015610230576040517f08c379a000000000000000000000000000000000000000000000000000000000815260040161022790610e83565b60405180910390fd5b5f73ffffffffffffffffffffffffffffffffffffffff168273ffffffffffffffffffffffffffffffffffffffff160361029e576040517f08c379a000000000000000000000000000000000000000000000000000000000815260040161029590610eeb565b60405180910390fd5b8060015f8581526020019081526020015f205f8282546102be9190610f36565b925050819055508060025f8282546102d69190610f36565b9250508190555061032882827f000000000000000000000000000000000000000000000000000000000000000073ffffffffffffffffffffffffffffffffffffffff166107e39092919063ffffffff16565b8173ffffffffffffffffffffffffffffffffffffffff16837f6e3c6096795c8298a218b2cfb8bde42726ff7c9a3d27b4d3ba41ab7f74feb5fb8360405161036f9190610d7f565b60405180910390a3505050565b7f000000000000000000000000000000000000000000000000000000000000000081565b6001602052805f5260405f205f915090505481565b6103bd61075c565b6103c65f610862565b565b5f5f5f9054906101000a900473ffffffffffffffffffffffffffffffffffffffff16905090565b5f60015f8381526020019081526020015f20549050919050565b5f811161044b576040517f08c379a000000000000000000000000000000000000000000000000000000000815260040161044290610fb3565b60405180910390fd5b8060015f8481526020019081526020015f205f82825461046b9190610fd1565b925050819055508060025f8282546104839190610fd1565b925050819055506104d73330837f000000000000000000000000000000000000000000000000000000000000000073ffffffffffffffffffffffffffffffffffffffff16610923909392919063ffffffff16565b3373ffffffffffffffffffffffffffffffffffffffff16827fe030e47e27825a2ad1b19e4cf2e70bfbfb3124af275c7727a82b114ba7b29a858360405161051e9190610d7f565b60405180910390a35050565b61053261075c565b8060015f8581526020019081526020015f20541015610586576040517f08c379a000000000000000000000000000000000000000000000000000000000815260040161057d90610e83565b60405180910390fd5b5f73ffffffffffffffffffffffffffffffffffffffff168273ffffffffffffffffffffffffffffffffffffffff16036105f4576040517f08c379a00000000000000000000000000000000000000000000000000000000081526004016105eb9061104e565b60405180910390fd5b8060015f8581526020019081526020015f205f8282546106149190610f36565b925050819055508060025f82825461062c9190610f36565b9250508190555061067e82827f000000000000000000000000000000000000000000000000000000000000000073ffffffffffffffffffffffffffffffffffffffff166107e39092919063ffffffff16565b8173ffffffffffffffffffffffffffffffffffffffff16837f80b577b4fc190ab86d963549e29f496afd079c5d81a2480d61217d4b5060a28c836040516106c59190610d7f565b60405180910390a3505050565b6106da61075c565b5f73ffffffffffffffffffffffffffffffffffffffff168173ffffffffffffffffffffffffffffffffffffffff160361074a575f6040517f1e4fbdf70000000000000000000000000000000000000000000000000000000081526004016107419190610da7565b60405180910390fd5b61075381610862565b50565b60025481565b6107646109a5565b73ffffffffffffffffffffffffffffffffffffffff166107826103c8565b73ffffffffffffffffffffffffffffffffffffffff16146107e1576107a56109a5565b6040517f118cdaa70000000000000000000000000000000000000000000000000000000081526004016107d89190610da7565b60405180910390fd5b565b61085d838473ffffffffffffffffffffffffffffffffffffffff1663a9059cbb858560405160240161081692919061106c565b604051602081830303815290604052915060e01b6020820180517bffffffffffffffffffffffffffffffffffffffffffffffffffffffff83818316178352505050506109ac565b505050565b5f5f5f9054906101000a900473ffffffffffffffffffffffffffffffffffffffff169050815f5f6101000a81548173ffffffffffffffffffffffffffffffffffffffff021916908373ffffffffffffffffffffffffffffffffffffffff1602179055508173ffffffffffffffffffffffffffffffffffffffff168173ffffffffffffffffffffffffffffffffffffffff167f8be0079c531659141344cd1fd0a4f28419497f9722a3daafe3b4186f6b6457e060405160405180910390a35050565b61099f848573ffffffffffffffffffffffffffffffffffffffff166323b872dd86868660405160240161095893929190611093565b604051602081830303815290604052915060e01b6020820180517bffffffffffffffffffffffffffffffffffffffffffffffffffffffff83818316178352505050506109ac565b50505050565b5f33905090565b5f6109d6828473ffffffffffffffffffffffffffffffffffffffff16610a4190919063ffffffff16565b90505f8151141580156109fa5750808060200190518101906109f891906110fd565b155b15610a3c57826040517f5274afe7000000000000000000000000000000000000000000000000000000008152600401610a339190610da7565b60405180910390fd5b505050565b6060610a4e83835f610a56565b905092915050565b606081471015610a9d57306040517fcd786059000000000000000000000000000000000000000000000000000000008152600401610a949190610da7565b60405180910390fd5b5f5f8573ffffffffffffffffffffffffffffffffffffffff168486604051610ac5919061117a565b5f6040518083038185875af1925050503d805f8114610aff576040519150601f19603f3d011682016040523d82523d5f602084013e610b04565b606091505b5091509150610b14868383610b1f565b925050509392505050565b606082610b3457610b2f82610bac565b610ba4565b5f8251148015610b5a57505f8473ffffffffffffffffffffffffffffffffffffffff163b145b15610b9c57836040517f9996b315000000000000000000000000000000000000000000000000000000008152600401610b939190610da7565b60405180910390fd5b819050610ba5565b5b9392505050565b5f81511115610bbe5780518082602001fd5b6040517f1425ea4200000000000000000000000000000000000000000000000000000000815260040160405180910390fd5b5f5ffd5b5f819050919050565b610c0681610bf4565b8114610c10575f5ffd5b50565b5f81359050610c2181610bfd565b92915050565b5f73ffffffffffffffffffffffffffffffffffffffff82169050919050565b5f610c5082610c27565b9050919050565b610c6081610c46565b8114610c6a575f5ffd5b50565b5f81359050610c7b81610c57565b92915050565b5f5f5f60608486031215610c9857610c97610bf0565b5b5f610ca586828701610c13565b9350506020610cb686828701610c6d565b9250506040610cc786828701610c13565b9150509250925092565b5f819050919050565b5f610cf4610cef610cea84610c27565b610cd1565b610c27565b9050919050565b5f610d0582610cda565b9050919050565b5f610d1682610cfb565b9050919050565b610d2681610d0c565b82525050565b5f602082019050610d3f5f830184610d1d565b92915050565b5f60208284031215610d5a57610d59610bf0565b5b5f610d6784828501610c13565b91505092915050565b610d7981610bf4565b82525050565b5f602082019050610d925f830184610d70565b92915050565b610da181610c46565b82525050565b5f602082019050610dba5f830184610d98565b92915050565b5f5f60408385031215610dd657610dd5610bf0565b5b5f610de385828601610c13565b9250506020610df485828601610c13565b9150509250929050565b5f60208284031215610e1357610e12610bf0565b5b5f610e2084828501610c6d565b91505092915050565b5f82825260208201905092915050565b7f496e73756666696369656e7420657363726f7765642066756e647300000000005f82015250565b5f610e6d601b83610e29565b9150610e7882610e39565b602082019050919050565b5f6020820190508181035f830152610e9a81610e61565b9050919050565b7f496e76616c696420726563697069656e740000000000000000000000000000005f82015250565b5f610ed5601183610e29565b9150610ee082610ea1565b602082019050919050565b5f6020820190508181035f830152610f0281610ec9565b9050919050565b7f4e487b71000000000000000000000000000000000000000000000000000000005f52601160045260245ffd5b5f610f4082610bf4565b9150610f4b83610bf4565b9250828203905081811115610f6357610f62610f09565b5b92915050565b7f416d6f756e74206d7573742062652067726561746572207468616e20300000005f82015250565b5f610f9d601d83610e29565b9150610fa882610f69565b602082019050919050565b5f6020820190508181035f830152610fca81610f91565b9050919050565b5f610fdb82610bf4565b9150610fe683610bf4565b9250828201905080821115610ffe57610ffd610f09565b5b92915050565b7f496e76616c6964206465706f7369746f720000000000000000000000000000005f82015250565b5f611038601183610e29565b915061104382611004565b602082019050919050565b5f6020820190508181035f8301526110658161102c565b9050919050565b5f60408201905061107f5f830185610d98565b61108c6020830184610d70565b9392505050565b5f6060820190506110a65f830186610d98565b6110b36020830185610d98565b6110c06040830184610d70565b949350505050565b5f8115159050919050565b6110dc816110c8565b81146110e6575f5ffd5b50565b5f815190506110f7816110d3565b92915050565b5f6020828403121561111257611111610bf0565b5b5f61111f848285016110e9565b91505092915050565b5f81519050919050565b5f81905092915050565b8281835e5f83830152505050565b5f61115482611128565b61115e8185611132565b935061116e81856020860161113c565b80840191505092915050565b5f611185828461114a565b91508190509291505056fea26469706673582212205553a7f03b6b294996b7d1372b8b23bf0faa999978bfa5106d2da96c7f19994864736f6c634300081d0033","linkReferences":{}},"methodIdentifiers":{"deposit(uint256,uint256)":"e2bbb158","escrowedAmounts(uint256)":"391e35ca","getEscrowedAmount(uint256)":"e146a3b9","owner()":"8da5cb5b","paymentToken()":"3013ce29","refund(uint256,address,uint256)":"e796a6eb","release(uint256,address,uint256)":"229c9f6c","renounceOwnership()":"715018a6","totalEscrowed()":"f9168231","transferOwnership(address)":"f2fde38b"},"id":76}