{"abi":[{"type":"function","name":"proof","inputs":[],"outputs":[{"name":"","type":"tuple","internalType":"struct Proof","components":[{"name":"seal","type":"tuple","internalType":"struct Seal","components":[{"name":"verifierSelector","type":"bytes4","internalType":"bytes4"},{"name":"seal","type":"bytes32[8]","internalType":"bytes32[8]"},{"name":"mode","type":"uint8","internalType":"enum ProofMode"}]},{"name":"callGuestId","type":"bytes32","internalType":"bytes32"},{"name":"length","type":"uint256","internalType":"uint256"},{"name":"callAssumptions","type":"tuple","internalType":"struct CallAssumptions","components":[{"name":"proverContractAddress","type":"address","internalType":"address"},{"name":"functionSelector","type":"bytes4","internalType":"bytes4"},{"name":"settleChainId","type":"uint256","internalType":"uint256"},{"name":"settleBlockNumber","type":"uint256","internalType":"uint256"},{"name":"settleBlockHash","type":"bytes32","internalType":"bytes32"}]}]}],"stateMutability":"pure"},{"type":"function","name":"proveComment","inputs":[{"name":"webProof","type":"tuple","internalType":"struct WebProof","components":[{"name":"webProofJson","type":"string","internalType":"string"}]},{"name":"repoOwner","type":"string","internalType":"string"},{"name":"repoName","type":"string","internalType":"string"},{"name":"issueNumber","type":"uint256","internalType":"uint256"}],"outputs":[{"name":"","type":"tuple","internalType":"struct Proof","components":[{"name":"seal","type":"tuple","internalType":"struct Seal","components":[{"name":"verifierSelector","type":"bytes4","internalType":"bytes4"},{"name":"seal","type":"bytes32[8]","internalType":"bytes32[8]"},{"name":"mode","type":"uint8","internalType":"enum ProofMode"}]},{"name":"callGuestId","type":"bytes32","internalType":"bytes32"},{"name":"length","type":"uint256","internalType":"uint256"},{"name":"callAssumptions","type":"tuple","internalType":"struct CallAssumptions","components":[{"name":"proverContractAddress","type":"address","internalType":"address"},{"name":"functionSelector","type":"bytes4","internalType":"bytes4"},{"name":"settleChainId","type":"uint256","internalType":"uint256"},{"name":"settleBlockNumber","type":"uint256","internalType":"uint256"},{"name":"settleBlockHash","type":"bytes32","internalType":"bytes32"}]}]},{"name":"","type":"uint8","internalType":"enum GitHubProver.GitHubAction"},{"name":"","type":"bool","internalType":"bool"}],"stateMutability":"view"},{"type":"function","name":"proveFork","inputs":[{"name":"webProof","type":"tuple","internalType":"struct WebProof","components":[{"name":"webProofJson","type":"string","internalType":"string"}]},{"name":"repoOwner","type":"string","internalType":"string"},{"name":"repoName","type":"string","internalType":"string"}],"outputs":[{"name":"","type":"tuple","internalType":"struct Proof","components":[{"name":"seal","type":"tuple","internalType":"struct Seal","components":[{"name":"verifierSelector","type":"bytes4","internalType":"bytes4"},{"name":"seal","type":"bytes32[8]","internalType":"bytes32[8]"},{"name":"mode","type":"uint8","internalType":"enum ProofMode"}]},{"name":"callGuestId","type":"bytes32","internalType":"bytes32"},{"name":"length","type":"uint256","internalType":"uint256"},{"name":"callAssumptions","type":"tuple","internalType":"struct CallAssumptions","components":[{"name":"proverContractAddress","type":"address","internalType":"address"},{"name":"functionSelector","type":"bytes4","internalType":"bytes4"},{"name":"settleChainId","type":"uint256","internalType":"uint256"},{"name":"settleBlockNumber","type":"uint256","internalType":"uint256"},{"name":"settleBlockHash","type":"bytes32","internalType":"bytes32"}]}]},{"name":"","type":"uint8","internalType":"enum GitHubProver.GitHubAction"},{"name":"","type":"bool","internalType":"bool"}],"stateMutability":"view"},{"type":"function","name":"proveMergePR","inputs":[{"name":"webProof","type":"tuple","internalType":"struct WebProof","components":[{"name":"webProofJson","type":"string","internalType":"string"}]},{"name":"repoOwner","type":"string","internalType":"string"},{"name":"repoName","type":"string","internalType":"string"},{"name":"prNumber","type":"uint256","internalType":"uint256"}],"outputs":[{"name":"","type":"tuple","internalType":"struct Proof","components":[{"name":"seal","type":"tuple","internalType":"struct Seal","components":[{"name":"verifierSelector","type":"bytes4","internalType":"bytes4"},{"name":"seal","type":"bytes32[8]","internalType":"bytes32[8]"},{"name":"mode","type":"uint8","internalType":"enum ProofMode"}]},{"name":"callGuestId","type":"bytes32","internalType":"bytes32"},{"name":"length","type":"uint256","internalType":"uint256"},{"name":"callAssumptions","type":"tuple","internalType":"struct CallAssumptions","components":[{"name":"proverContractAddress","type":"address","internalType":"address"},{"name":"functionSelector","type":"bytes4","internalType":"bytes4"},{"name":"settleChainId","type":"uint256","internalType":"uint256"},{"name":"settleBlockNumber","type":"uint256","internalType":"uint256"},{"name":"settleBlockHash","type":"bytes32","internalType":"bytes32"}]}]},{"name":"","type":"uint8","internalType":"enum GitHubProver.GitHubAction"},{"name":"","type":"bool","internalType":"bool"}],"stateMutability":"view"},{"type":"function","name":"proveOpenIssue","inputs":[{"name":"webProof","type":"tuple","internalType":"struct WebProof","components":[{"name":"webProofJson","type":"string","internalType":"string"}]},{"name":"repoOwner","type":"string","internalType":"string"},{"name":"repoName","type":"string","internalType":"string"}],"outputs":[{"name":"","type":"tuple","internalType":"struct Proof","components":[{"name":"seal","type":"tuple","internalType":"struct Seal","components":[{"name":"verifierSelector","type":"bytes4","internalType":"bytes4"},{"name":"seal","type":"bytes32[8]","internalType":"bytes32[8]"},{"name":"mode","type":"uint8","internalType":"enum ProofMode"}]},{"name":"callGuestId","type":"bytes32","internalType":"bytes32"},{"name":"length","type":"uint256","internalType":"uint256"},{"name":"callAssumptions","type":"tuple","internalType":"struct CallAssumptions","components":[{"name":"proverContractAddress","type":"address","internalType":"address"},{"name":"functionSelector","type":"bytes4","internalType":"bytes4"},{"name":"settleChainId","type":"uint256","internalType":"uint256"},{"name":"settleBlockNumber","type":"uint256","internalType":"uint256"},{"name":"settleBlockHash","type":"bytes32","internalType":"bytes32"}]}]},{"name":"","type":"uint8","internalType":"enum GitHubProver.GitHubAction"},{"name":"","type":"bool","internalType":"bool"}],"stateMutability":"view"},{"type":"function","name":"proveStar","inputs":[{"name":"webProof","type":"tuple","internalType":"struct WebProof","components":[{"name":"webProofJson","type":"string","internalType":"string"}]},{"name":"repoOwner","type":"string","internalType":"string"},{"name":"repoName","type":"string","internalType":"string"}],"outputs":[{"name":"","type":"tuple","internalType":"struct Proof","components":[{"name":"seal","type":"tuple","internalType":"struct Seal","components":[{"name":"verifierSelector","type":"bytes4","internalType":"bytes4"},{"name":"seal","type":"bytes32[8]","internalType":"bytes32[8]"},{"name":"mode","type":"uint8","internalType":"enum ProofMode"}]},{"name":"callGuestId","type":"bytes32","internalType":"bytes32"},{"name":"length","type":"uint256","internalType":"uint256"},{"name":"callAssumptions","type":"tuple","internalType":"struct CallAssumptions","components":[{"name":"proverContractAddress","type":"address","internalType":"address"},{"name":"functionSelector","type":"bytes4","internalType":"bytes4"},{"name":"settleChainId","type":"uint256","internalType":"uint256"},{"name":"settleBlockNumber","type":"uint256","internalType":"uint256"},{"name":"settleBlockHash","type":"bytes32","internalType":"bytes32"}]}]},{"name":"","type":"uint8","internalType":"enum GitHubProver.GitHubAction"},{"name":"","type":"bool","internalType":"bool"}],"stateMutability":"view"},{"type":"function","name":"setBlock","inputs":[{"name":"blockNo","type":"uint256","internalType":"uint256"}],"outputs":[],"stateMutability":"nonpayable"},{"type":"function","name":"setChain","inputs":[{"name":"chainId","type":"uint256","internalType":"uint256"},{"name":"blockNo","type":"uint256","internalType":"uint256"}],"outputs":[],"stateMutability":"nonpayable"},{"type":"error","name":"FailedInnerCall","inputs":[]}],"bytecode":{"object":"0x6080604052348015600e575f5ffd5b506126e88061001c5f395ff3fe608060405234801561000f575f5ffd5b5060043610610086575f3560e01c8063a34f8b7911610059578063a34f8b791461013c578063c04493081461016e578063faf924cf146101a0578063ffbc5638146101be57610086565b80632d78f5761461008a57806337b5af09146100bc5780637fe092f4146100ee57806387cea3ae14610120575b5f5ffd5b6100a4600480360381019061009f919061126f565b6101da565b6040516100b39392919061162d565b60405180910390f35b6100d660048036038101906100d1919061168f565b610250565b6040516100e59392919061162d565b60405180910390f35b6101086004803603810190610103919061126f565b6102d6565b6040516101179392919061162d565b60405180910390f35b61013a6004803603810190610135919061174e565b61034b565b005b6101566004803603810190610151919061168f565b610428565b6040516101659392919061162d565b60405180910390f35b6101886004803603810190610183919061126f565b61053e565b6040516101979392919061162d565b60405180910390f35b6101a86105b4565b6040516101b59190611779565b60405180910390f35b6101d860048036038101906101d39190611793565b6105c9565b005b6101e26110b0565b5f5f5f878787876040516020016101fc949392919061187f565b60405160208183030381529060405290505f61022a828b61021c90611a5a565b6106a990919063ffffffff16565b90505f600190506102396105b4565b600482955095509550505050955095509592505050565b6102586110b0565b5f5f5f6102648561072d565b90505f8989898985604051602001610280959493929190611b00565b60405160208183030381529060405290505f6102ae828d6102a090611a5a565b6106a990919063ffffffff16565b90505f600190506102bd6105b4565b6003829650965096505050505096509650969350505050565b6102de6110b0565b5f5f5f878787876040516020016102f89493929190611b70565b60405160208183030381529060405290505f610326828b61031890611a5a565b61088690919063ffffffff16565b90505f600190506103356105b4565b5f82955095509550505050955095509592505050565b7f2ae215ce9fde588adfdea92976dc9aa45aa006a0f63942d8f9f21bd4537972a35f1c73ffffffffffffffffffffffffffffffffffffffff166387cea3ae826040518263ffffffff1660e01b81526004016103a69190611bc4565b6020604051808303815f875af11580156103c2573d5f5f3e3d5ffd5b505050506040513d601f19601f820116820180604052508101906103e69190611c07565b610425576040517f08c379a000000000000000000000000000000000000000000000000000000000815260040161041c90611c8c565b60405180910390fd5b50565b6104306110b0565b5f5f5f61043c8561072d565b90505f8989898985604051602001610458959493929190611cd0565b60405160208183030381529060405290505f610486828d61047890611a5a565b61088690919063ffffffff16565b90505f6104d16040518060400160405280600881526020017f242e6d65726765640000000000000000000000000000000000000000000000008152508361090990919063ffffffff16565b90505f6040518060400160405280600481526020017f74727565000000000000000000000000000000000000000000000000000000008152508051906020012082805190602001201490506105246105b4565b600282975097509750505050505096509650969350505050565b6105466110b0565b5f5f5f878787876040516020016105609493929190611d57565b60405160208183030381529060405290505f61058e828b61058090611a5a565b6106a990919063ffffffff16565b90505f6001905061059d6105b4565b600182955095509550505050955095509592505050565b6105bc6110b0565b6105c4610a3e565b905090565b7f2ae215ce9fde588adfdea92976dc9aa45aa006a0f63942d8f9f21bd4537972a35f1c73ffffffffffffffffffffffffffffffffffffffff1663ffbc563883836040518363ffffffff1660e01b8152600401610626929190611dab565b6020604051808303815f875af1158015610642573d5f5f3e3d5ffd5b505050506040513d601f19601f820116820180604052508101906106669190611c07565b6106a5576040517f08c379a000000000000000000000000000000000000000000000000000000000815260040161069c90611c8c565b60405180910390fd5b5050565b6106b16110e2565b5f6106be8460015f610a55565b90506106cd8160200151610b98565b6106e4838260400151610da790919063ffffffff16565b610723576040517f08c379a000000000000000000000000000000000000000000000000000000000815260040161071a90611e1c565b60405180910390fd5b8091505092915050565b60605f8203610773576040518060400160405280600181526020017f30000000000000000000000000000000000000000000000000000000000000008152509050610881565b5f8290505f5b5f82146107a257808061078b90611e67565b915050600a8261079b9190611edb565b9150610779565b5f8167ffffffffffffffff8111156107bd576107bc6118e7565b5b6040519080825280601f01601f1916602001820160405280156107ef5781602001600182028036833780820191505090505b5090505b5f851461087a576001826108079190611f0b565b9150600a856108169190611f3e565b60306108229190611f6e565b60f81b81838151811061083857610837611fa1565b5b60200101907effffffffffffffffffffffffffffffffffffffffffffffffffffffffffffff191690815f1a905350600a856108739190611edb565b94506107f3565b8093505050505b919050565b61088e6110e2565b5f61089a845f5f610a55565b90506108a98160200151610b98565b6108c0838260400151610e7d90919063ffffffff16565b6108ff576040517f08c379a00000000000000000000000000000000000000000000000000000000081526004016108f690612018565b60405180910390fd5b8091505092915050565b60605f835f01515111610951576040517f08c379a000000000000000000000000000000000000000000000000000000000815260040161094890612080565b60405180910390fd5b5f6040518060400160405280855f015181526020018481525060405160200161097a9190612195565b60405160208183030381529060405290505f5f600273f4e4fdca9d5d55e64525e314391996a15f7ec6006109ae91906121b5565b73ffffffffffffffffffffffffffffffffffffffff16836040516109d29190612240565b5f60405180830381855afa9150503d805f8114610a0a576040519150601f19603f3d011682016040523d82523d5f602084013e610a0f565b606091505b5091509150610a1e8282610ea4565b5080806020019051810190610a3391906122c4565b935050505092915050565b610a466110b0565b610a4e6110b0565b8091505090565b610a5d6110e2565b5f5f5f73f4e4fdca9d5d55e64525e314391996a15f7ec600610a7f91906121b5565b73ffffffffffffffffffffffffffffffffffffffff16868686604051602001610aaa939291906123be565b604051602081830303815290604052604051610ac69190612240565b5f60405180830381855afa9150503d805f8114610afe576040519150601f19603f3d011682016040523d82523d5f602084013e610b03565b606091505b5091509150610b128282610ea4565b505f81806020019051810190610b2891906124c6565b9050604051806060016040528082600260048110610b4957610b48611fa1565b5b6020020151815260200182600360048110610b6757610b66611fa1565b5b60200201518152602001825f60048110610b8457610b83611fa1565b5b602002015181525093505050509392505050565b610ba0610ec8565b15610c1457610bd0816040518060e0016040528060ae815260200161260560ae9139610e7d90919063ffffffff16565b610c0f576040517f08c379a0000000000000000000000000000000000000000000000000000000008152600401610c0690612557565b60405180910390fd5b610da4565b610c1c610ee5565b15610ce457610c29610f59565b73ffffffffffffffffffffffffffffffffffffffff16632505a3bd826040518263ffffffff1660e01b8152600401610c6191906125ad565b602060405180830381865afa158015610c7c573d5f5f3e3d5ffd5b505050506040513d601f19601f82011682018060405250810190610ca09190611c07565b610cdf576040517f08c379a0000000000000000000000000000000000000000000000000000000008152600401610cd690612557565b60405180910390fd5b610da3565b610cec610f74565b73ffffffffffffffffffffffffffffffffffffffff16632505a3bd826040518263ffffffff1660e01b8152600401610d2491906125ad565b602060405180830381865afa158015610d3f573d5f5f3e3d5ffd5b505050506040513d601f19601f82011682018060405250810190610d639190611c07565b610da2576040517f08c379a0000000000000000000000000000000000000000000000000000000008152600401610d9990612557565b60405180910390fd5b5b5b50565b5f5f8390505f839050805182511015610dc4575f92505050610e77565b5f5f90505b8151811015610e6f57818181518110610de557610de4611fa1565b5b602001015160f81c60f81b7effffffffffffffffffffffffffffffffffffffffffffffffffffffffffffff1916838281518110610e2557610e24611fa1565b5b602001015160f81c60f81b7effffffffffffffffffffffffffffffffffffffffffffffffffffffffffffff191614610e62575f9350505050610e77565b8080600101915050610dc9565b506001925050505b92915050565b5f81518351148015610e9c575081805190602001208380519060200120145b905092915050565b606082610eb957610eb482610f8f565b610ec1565b819050610ec2565b5b92915050565b5f610ed1610fd3565b80610ee05750610edf610feb565b5b905090565b5f6001461480610ef55750600a46145b80610f005750608946145b80610f0c575061014446145b80610f1857506101e046145b80610f2457506102eb46145b80610f30575061210546145b80610f3c575061a4b146145b80610f48575061a4ba46145b80610f54575061e70846145b905090565b5f73bdf27a6f3cf309f9127d8173d0d28bf9ab35ed2b905090565b5f730cffdb4e737f00ef57b4c61dbfbb334b3a416519905090565b5f81511115610fa15780518082602001fd5b6040517f1425ea4200000000000000000000000000000000000000000000000000000000815260040160405180910390fd5b5f617a69461480610fe657506204991946145b905090565b5f5f5f601e73f4e4fdca9d5d55e64525e314391996a15f7ec60061100f91906121b5565b73ffffffffffffffffffffffffffffffffffffffff16604051611031906125f0565b5f60405180830381855afa9150503d805f8114611069576040519150601f19603f3d011682016040523d82523d5f602084013e61106e565b606091505b509150915081158061108057505f8151145b1561108f575f925050506110ad565b5f818060200190518101906110a49190611c07565b90508093505050505b90565b60405180608001604052806110c3611103565b81526020015f81526020015f81526020016110dc611159565b81525090565b60405180606001604052806060815260200160608152602001606081525090565b60405180606001604052805f7bffffffffffffffffffffffffffffffffffffffffffffffffffffffff1916815260200161113b6111b8565b81526020015f600181111561115357611152611404565b5b81525090565b6040518060a001604052805f73ffffffffffffffffffffffffffffffffffffffff1681526020015f7bffffffffffffffffffffffffffffffffffffffffffffffffffffffff191681526020015f81526020015f81526020015f81525090565b604051806101000160405280600890602082028036833780820191505090505090565b5f604051905090565b5f5ffd5b5f5ffd5b5f5ffd5b5f60208284031215611205576112046111ec565b5b81905092915050565b5f5ffd5b5f5ffd5b5f5ffd5b5f5f83601f84011261122f5761122e61120e565b5b8235905067ffffffffffffffff81111561124c5761124b611212565b5b60208301915083600182028301111561126857611267611216565b5b9250929050565b5f5f5f5f5f60608688031215611288576112876111e4565b5b5f86013567ffffffffffffffff8111156112a5576112a46111e8565b5b6112b1888289016111f0565b955050602086013567ffffffffffffffff8111156112d2576112d16111e8565b5b6112de8882890161121a565b9450945050604086013567ffffffffffffffff811115611301576113006111e8565b5b61130d8882890161121a565b92509250509295509295909350565b5f7fffffffff0000000000000000000000000000000000000000000000000000000082169050919050565b6113508161131c565b82525050565b5f60089050919050565b5f81905092915050565b5f819050919050565b5f819050919050565b61138581611373565b82525050565b5f611396838361137c565b60208301905092915050565b5f602082019050919050565b6113b781611356565b6113c18184611360565b92506113cc8261136a565b805f5b838110156113fc5781516113e3878261138b565b96506113ee836113a2565b9250506001810190506113cf565b505050505050565b7f4e487b71000000000000000000000000000000000000000000000000000000005f52602160045260245ffd5b6002811061144257611441611404565b5b50565b5f81905061145282611431565b919050565b5f61146182611445565b9050919050565b61147181611457565b82525050565b61014082015f82015161148c5f850182611347565b50602082015161149f60208501826113ae565b5060408201516114b3610120850182611468565b50505050565b5f819050919050565b6114cb816114b9565b82525050565b5f73ffffffffffffffffffffffffffffffffffffffff82169050919050565b5f6114fa826114d1565b9050919050565b61150a816114f0565b82525050565b60a082015f8201516115245f850182611501565b5060208201516115376020850182611347565b50604082015161154a60408501826114c2565b50606082015161155d60608501826114c2565b506080820151611570608085018261137c565b50505050565b61022082015f82015161158b5f850182611477565b50602082015161159f61014085018261137c565b5060408201516115b36101608501826114c2565b5060608201516115c7610180850182611510565b50505050565b600581106115de576115dd611404565b5b50565b5f8190506115ee826115cd565b919050565b5f6115fd826115e1565b9050919050565b61160d816115f3565b82525050565b5f8115159050919050565b61162781611613565b82525050565b5f610260820190506116415f830186611576565b61164f610220830185611604565b61165d61024083018461161e565b949350505050565b61166e816114b9565b8114611678575f5ffd5b50565b5f8135905061168981611665565b92915050565b5f5f5f5f5f5f608087890312156116a9576116a86111e4565b5b5f87013567ffffffffffffffff8111156116c6576116c56111e8565b5b6116d289828a016111f0565b965050602087013567ffffffffffffffff8111156116f3576116f26111e8565b5b6116ff89828a0161121a565b9550955050604087013567ffffffffffffffff811115611722576117216111e8565b5b61172e89828a0161121a565b9350935050606061174189828a0161167b565b9150509295509295509295565b5f60208284031215611763576117626111e4565b5b5f6117708482850161167b565b91505092915050565b5f6102208201905061178d5f830184611576565b92915050565b5f5f604083850312156117a9576117a86111e4565b5b5f6117b68582860161167b565b92505060206117c78582860161167b565b9150509250929050565b7f68747470733a2f2f6170692e6769746875622e636f6d2f7265706f732f000000815250565b5f81905092915050565b828183375f83830152505050565b5f61181a83856117f7565b9350611827838584611801565b82840190509392505050565b7f2f00000000000000000000000000000000000000000000000000000000000000815250565b7f2f69737375657300000000000000000000000000000000000000000000000000815250565b5f611889826117d1565b601d8201915061189a82868861180f565b91506118a582611833565b6001820191506118b682848661180f565b91506118c182611859565b60078201915081905095945050505050565b5f5ffd5b5f601f19601f8301169050919050565b7f4e487b71000000000000000000000000000000000000000000000000000000005f52604160045260245ffd5b61191d826118d7565b810181811067ffffffffffffffff8211171561193c5761193b6118e7565b5b80604052505050565b5f61194e6111db565b905061195a8282611914565b919050565b5f5ffd5b5f5ffd5b5f67ffffffffffffffff821115611981576119806118e7565b5b61198a826118d7565b9050602081019050919050565b5f6119a96119a484611967565b611945565b9050828152602081018484840111156119c5576119c4611963565b5b6119d0848285611801565b509392505050565b5f82601f8301126119ec576119eb61120e565b5b81356119fc848260208601611997565b91505092915050565b5f60208284031215611a1a57611a196118d3565b5b611a246020611945565b90505f82013567ffffffffffffffff811115611a4357611a4261195f565b5b611a4f848285016119d8565b5f8301525092915050565b5f611a653683611a05565b9050919050565b7f2f6973737565732f000000000000000000000000000000000000000000000000815250565b5f81519050919050565b8281835e5f83830152505050565b5f611ab482611a92565b611abe81856117f7565b9350611ace818560208601611a9c565b80840191505092915050565b7f2f636f6d6d656e74730000000000000000000000000000000000000000000000815250565b5f611b0a826117d1565b601d82019150611b1b82878961180f565b9150611b2682611833565b600182019150611b3782858761180f565b9150611b4282611a6c565b600882019150611b528284611aaa565b9150611b5d82611ada565b6009820191508190509695505050505050565b5f611b7a826117d1565b601d82019150611b8b82868861180f565b9150611b9682611833565b600182019150611ba782848661180f565b915081905095945050505050565b611bbe816114b9565b82525050565b5f602082019050611bd75f830184611bb5565b92915050565b611be681611613565b8114611bf0575f5ffd5b50565b5f81519050611c0181611bdd565b92915050565b5f60208284031215611c1c57611c1b6111e4565b5b5f611c2984828501611bf3565b91505092915050565b5f82825260208201905092915050565b7f4661696c6564206368656174636f646520696e766f636174696f6e00000000005f82015250565b5f611c76601b83611c32565b9150611c8182611c42565b602082019050919050565b5f6020820190508181035f830152611ca381611c6a565b9050919050565b7f2f70756c6c732f00000000000000000000000000000000000000000000000000815250565b5f611cda826117d1565b601d82019150611ceb82878961180f565b9150611cf682611833565b600182019150611d0782858761180f565b9150611d1282611caa565b600782019150611d228284611aaa565b91508190509695505050505050565b7f2f666f726b730000000000000000000000000000000000000000000000000000815250565b5f611d61826117d1565b601d82019150611d7282868861180f565b9150611d7d82611833565b600182019150611d8e82848661180f565b9150611d9982611d31565b60068201915081905095945050505050565b5f604082019050611dbe5f830185611bb5565b611dcb6020830184611bb5565b9392505050565b7f55524c20707265666978206d69736d61746368000000000000000000000000005f82015250565b5f611e06601383611c32565b9150611e1182611dd2565b602082019050919050565b5f6020820190508181035f830152611e3381611dfa565b9050919050565b7f4e487b71000000000000000000000000000000000000000000000000000000005f52601160045260245ffd5b5f611e71826114b9565b91507fffffffffffffffffffffffffffffffffffffffffffffffffffffffffffffffff8203611ea357611ea2611e3a565b5b600182019050919050565b7f4e487b71000000000000000000000000000000000000000000000000000000005f52601260045260245ffd5b5f611ee5826114b9565b9150611ef0836114b9565b925082611f0057611eff611eae565b5b828204905092915050565b5f611f15826114b9565b9150611f20836114b9565b9250828203905081811115611f3857611f37611e3a565b5b92915050565b5f611f48826114b9565b9150611f53836114b9565b925082611f6357611f62611eae565b5b828206905092915050565b5f611f78826114b9565b9150611f83836114b9565b9250828201905080821115611f9b57611f9a611e3a565b5b92915050565b7f4e487b71000000000000000000000000000000000000000000000000000000005f52603260045260245ffd5b7f55524c206d69736d6174636800000000000000000000000000000000000000005f82015250565b5f612002600c83611c32565b915061200d82611fce565b602082019050919050565b5f6020820190508181035f83015261202f81611ff6565b9050919050565b7f426f647920697320656d707479000000000000000000000000000000000000005f82015250565b5f61206a600d83611c32565b915061207582612036565b602082019050919050565b5f6020820190508181035f8301526120978161205e565b9050919050565b5f60029050919050565b5f81905092915050565b5f819050919050565b5f82825260208201905092915050565b5f6120d582611a92565b6120df81856120bb565b93506120ef818560208601611a9c565b6120f8816118d7565b840191505092915050565b5f61210e83836120cb565b905092915050565b5f602082019050919050565b5f61212c8261209e565b61213681856120a8565b935083602082028501612148856120b2565b805f5b8581101561218357848403895281516121648582612103565b945061216f83612116565b925060208a0199505060018101905061214b565b50829750879550505050505092915050565b5f6020820190508181035f8301526121ad8184612122565b905092915050565b5f6121bf826114d1565b91506121ca836114d1565b9250828201905073ffffffffffffffffffffffffffffffffffffffff8111156121f6576121f5611e3a565b5b92915050565b5f81519050919050565b5f81905092915050565b5f61221a826121fc565b6122248185612206565b9350612234818560208601611a9c565b80840191505092915050565b5f61224b8284612210565b915081905092915050565b5f61226861226384611967565b611945565b90508281526020810184848401111561228457612283611963565b5b61228f848285611a9c565b509392505050565b5f82601f8301126122ab576122aa61120e565b5b81516122bb848260208601612256565b91505092915050565b5f602082840312156122d9576122d86111e4565b5b5f82015167ffffffffffffffff8111156122f6576122f56111e8565b5b61230284828501612297565b91505092915050565b5f602083015f8301518482035f86015261232582826120cb565b9150508091505092915050565b6002811061234357612342611404565b5b50565b5f81905061235382612332565b919050565b5f61236282612346565b9050919050565b61237281612358565b82525050565b6002811061238957612388611404565b5b50565b5f81905061239982612378565b919050565b5f6123a88261238c565b9050919050565b6123b88161239e565b82525050565b5f6060820190508181035f8301526123d6818661230b565b90506123e56020830185612369565b6123f260408301846123af565b949350505050565b5f67ffffffffffffffff821115612414576124136118e7565b5b602082029050919050565b5f61243161242c846123fa565b611945565b9050806020840283018581111561244b5761244a611216565b5b835b8181101561249257805167ffffffffffffffff8111156124705761246f61120e565b5b80860161247d8982612297565b8552602085019450505060208101905061244d565b5050509392505050565b5f82601f8301126124b0576124af61120e565b5b60046124bd84828561241f565b91505092915050565b5f602082840312156124db576124da6111e4565b5b5f82015167ffffffffffffffff8111156124f8576124f76111e8565b5b6125048482850161249c565b91505092915050565b7f496e76616c6964206e6f74617279207075626c6963206b6579000000000000005f82015250565b5f612541601983611c32565b915061254c8261250d565b602082019050919050565b5f6020820190508181035f83015261256e81612535565b9050919050565b5f61257f82611a92565b6125898185611c32565b9350612599818560208601611a9c565b6125a2816118d7565b840191505092915050565b5f6020820190508181035f8301526125c58184612575565b905092915050565b50565b5f6125db5f83612206565b91506125e6826125cd565b5f82019050919050565b5f6125fa826125d0565b915081905091905056fe2d2d2d2d2d424547494e205055424c4943204b45592d2d2d2d2d0a4d465977454159484b6f5a497a6a3043415159464b34454541416f445167414565306a786e424f6261496a37586a673654584c434d3147472f566859353635300a4f72532f6a6763624275666f2f51446646764c2f69727a4976314a536d684769566373434843776f6c684458576367653776324973513d3d0a2d2d2d2d2d454e44205055424c4943204b45592d2d2d2d2d0aa2646970667358221220c656cc1eac99656d0602814b096281623296e5bc44225cb6c2ef5675463a80bb64736f6c634300081d0033","linkReferences":{}},"methodIdentifiers":{"proof()":"faf924cf","proveComment((string),string,string,uint256)":"37b5af09","proveFork((string),string,string)":"c0449308","proveMergePR((string),string,string,uint256)":"a34f8b79","proveOpenIssue((string),string,string)":"2d78f576","proveStar((string),string,string)":"7fe092f4","setBlock(uint256)":"87cea3ae","setChain(uint256,uint256)":"ffbc5638"},"id":77}